:100000000C945C000C9479000C9479000C947900A9
:100010000C9479000C9479000C9479000C9479007C
:100020000C9479000C9479000C9479000C9479006C
:100030000C9479000C9479000C9479000C9479005C
:100040000C947A010C9479000C9479000C9479004A
:100050000C9479000C9479000C9479000C9479003C
:100060000C9479000C947900000000080002010053
:100070000003040700000000000000000000000072
:10008000250028002B0000000000240027002A0083
:10009000040404040404040402020202020203032E
:1000A0000303030301020408102040800102040836
:1000B000102001020408102011241FBECFEFD8E049
:1000C000DEBFCDBF11E0A0E0B1E0E0E6F4E002C0A9
:1000D00005900D92A032B107D9F721E0A0E2B1E07E
:1000E00001C01D92A932B207E1F70E94C4010C942D
:1000F0002E020C94000090E0FC01EC55FF4F24917F
:1001000080579F4FFC018491882399F090E0880FDD
:10011000991FFC01EA57FF4FA591B491FC01E458E7
:10012000FF4F859194918FB7F894EC91E22BEC936B
:100130008FBF08953FB7F8948091250190912601D3
:10014000A0912701B091280126B5A89B05C02F3F9B
:1001500019F00196A11DB11D3FBFBA2FA92F982FED
:100160008827BC01CD01620F711D811D911D42E0E8
:10017000660F771F881F991F4A95D1F708958F92B0
:100180009F92AF92BF92CF92DF92EF92FF926B015C
:100190007C010E949A004B015C01C114D104E1046E
:1001A000F104B9F00E949A00681979098A099B093B
:1001B000683E73408105910580F321E0C21AD108A1
:1001C000E108F10888EE880E83E0981EA11CB11C9E
:1001D000E4CFFF90EF90DF90CF90BF90AF909F90D3
:1001E0008F900895EF92FF920F931F93CF93DF9319
:1001F0007C010AE010E0D0E0C0E081E0E816F10404
:1002000009F053C02196C370DD279E0173E0220FD1
:10021000331F7A95E1F790E080E0FC01E059FF4F51
:100220005491FC01E455FF4F4491FC01E856FF4F07
:10023000E491EE2321F1DC01AA0FBB1FA20FB31F33
:10024000A050BF4F6C91552351F0533009F439C081
:1002500070F5513009F43BC0523009F43CC0F0E075
:10026000EE0FFF1FE458FF4FA591B4915FB7F894CC
:10027000EC9161113DC040954E234C935FBF0196B8
:100280008430910509F0C9CF60E971E080E090E029
:100290000E94BF000150110909F0AFCFDF91CF914B
:1002A0001F910F91FF90EF9008952396ACCF573098
:1002B000A9F05830C9F0543091F6509180005F7D1C
:1002C00003C0509180005F7750938000C8CF54B531
:1002D0005F7754BDC4CF54B55F7DFBCF5091B00064
:1002E0005F775093B000BBCF5091B0005F7DF9CFE6
:1002F0004E2BC3CF1F920F920FB60F9211242F9344
:100300003F938F939F93AF93BF93809121019091DF
:100310002201A0912301B09124013091200123E01A
:10032000230F2D3758F50196A11DB11D20932001F3
:100330008093210190932201A0932301B093240183
:100340008091250190912601A0912701B09128016B
:100350000196A11DB11D8093250190932601A093C4
:100360002701B0932801BF91AF919F918F913F9149
:100370002F910F900FBE0F901F90189526E8230F16
:100380000296A11DB11DD2CF789484B5826084BD40
:1003900084B5816084BD85B5826085BD85B5816089
:1003A00085BD80916E00816080936E001092810007
:1003B00080918100826080938100809181008160C2
:1003C0008093810080918000816080938000809183
:1003D000B10084608093B1008091B000816080930F
:1003E000B00080917A00846080937A0080917A00D6
:1003F000826080937A0080917A00816080937A0095
:1004000080917A00806880937A001092C10088E021
:100410000E947B0089E00E947B008AE00E947B00B2
:100420008BE00E947B00C0E0D0E081E090E00E9481
:10043000F20068EE73E080E090E00E94BF0090E080
:1004400080E00E94F20068EE73E080E090E00E949D
:10045000BF00209751F30E940000E7CFF894FFCF30
:100460000100000001000000010000000000010088
:100470000000010000000100000001000100000078
:00000001FF
