:100000000C945D000C9485000C9485000C94850084
:100010000C9485000C9485000C9485000C9485004C
:100020000C9485000C9485000C9485000C9485003C
:100030000C9485000C9485000C9485000C9485002C
:100040000C94FA020C9485000C946A030C944403FB
:100050000C9485000C9485000C9485000C9485000C
:100060000C9485000C94850000000008000201003B
:100070000003040700000000000000000000000072
:10008000250028002B0000000000240027002A0083
:10009000040404040404040402020202020203032E
:1000A0000303030301020408102040800102040836
:1000B0001020010204081020910411241FBECFEF6C
:1000C000D8E0DEBFCDBF12E0A0E0B1E0ECE8F9E09F
:1000D00002C005900D92A236B107D9F723E0A2E63F
:1000E000B2E001C01D92A830B207E1F710E0CDE503
:1000F000D0E004C02197FE010E94BE04CC35D10798
:10010000C9F70E949C030C94C4040C94000090E076
:10011000FC01EC55FF4F249180579F4FFC018491C7
:10012000882399F090E0880F991FFC01EA57FF4F50
:10013000A591B491FC01E458FF4F859194918FB73C
:10014000F894EC91E22BEC938FBF089590E0FC01C2
:10015000E859FF4F2491FC01EC55FF4F3491FC010D
:10016000E057FF4FE491EE23C9F0222339F023300A
:1001700001F1A8F4213019F1223029F1F0E0EE0F5D
:10018000FF1FE458FF4FA591B4918FB7F894EC91FD
:10019000611126C030953E233C938FBF08952730D0
:1001A000A9F02830C9F0243049F7809180008F7D74
:1001B00003C0809180008F7780938000DFCF84B56B
:1001C0008F7784BDDBCF84B58F7DFBCF8091B0006E
:1001D0008F778093B000D2CF8091B0008F7DF9CF20
:1001E0003E2BDACF3FB7F894809167029091680276
:1001F000A0916902B0916A0226B5A89B05C02F3F65
:1002000019F00196A11DB11D3FBFBA2FA92F982F3C
:100210008827BC01CD01620F711D811D911D42E037
:10022000660F771F881F991F4A95D1F708958F92FF
:100230009F92AF92BF92CF92DF92EF92FF926B01AB
:100240007C010E94F2004B015C01C114D104E10465
:10025000F104B9F00E94F200681979098A099B0932
:10026000683E73408105910580F321E0C21AD108F0
:10027000E108F10888EE880E83E0981EA11CB11CED
:10028000E4CFFF90EF90DF90CF90BF90AF909F9022
:100290008F900895BF92CF92DF92EF92FF920F93CB
:1002A0001F93CF93DF937C010AE010E0D0E0C0E021
:1002B00021E0E216F10471F52196C770DD27CE0129
:1002C00024E0880F991F2A95E1F7FC01EE5AFE4FB2
:1002D0006F0138E0B32EF6016081F2E0CF0ED11C41
:1002E0008B2D0E94A600B39420E1B212F4CF60E9F6
:1002F00071E080E090E00E94170101501109C1F601
:10030000DF91CF911F910F91FF90EF90DF90CF90F1
:10031000BF9008952796D1CF9F92AF92BF92CF9270
:10032000DF92EF92FF920F931F93CF93DF936C01B5
:100330005B017A01D0E0C0E081E0A816B10471F55C
:100340002196C370DD278E0183E0000F111F8A956F
:10035000E1F70C0D1D1D98E0992EF80160810E5FEC
:100360001F4F892D0E94A6009394FCE09F12F5CFA9
:1003700060E971E080E090E00E94170181E0E81AF6
:10038000F108D1F6DF91CF911F910F91FF90EF907F
:10039000DF90CF90BF90AF909F9008952396D1CFDC
:1003A000AF92BF92CF92DF92EF92FF920F931F9383
:1003B000CF93DF936C017B018B01040F151FEB01C1
:1003C0005E01AE18BF08C017D10759F06991D60178
:1003D000ED91FC910190F081E02DC6010995892BEA
:1003E00079F7C501DF91CF911F910F91FF90EF90A9
:1003F000DF90CF90BF90AF900895FC01538D448D56
:10040000252F30E0842F90E0821B930B541710F0BF
:10041000CF96089501970895FC01918D828D9817CC
:1004200061F0A28DAE0FBF2FB11D5D968C91928DA4
:100430009F5F9F73928F90E008958FEF9FEF0895D5
:10044000FC01918D828D981731F0828DE80FF11D9E
:10045000858D90E008958FEF9FEF0895FC01918DB9
:10046000228D892F90E0805C9F4F821B91098F73B2
:10047000992708958BE692E00E942E0221E0892BB5
:1004800009F420E0822F089580E090E0892B29F084
:100490000E943A0281110C9400000895FC01A48D81
:1004A000A80FB92FB11DA35ABF4F2C91848D90E096
:1004B00001968F739927848FA689B7892C93A08979
:1004C000B1898C91837080648C93938D848D981303
:1004D00006C00288F389E02D80818F7D8083089596
:1004E000EF92FF920F931F93CF93DF93EC0181E084
:1004F000888F9B8D8C8D98131AC0E889F98980812B
:1005000085FF15C09FB7F894EE89FF896083E8895D
:10051000F98980818370806480839FBF81E090E04F
:10052000DF91CF911F910F91FF90EF900895F62EDC
:100530000B8D10E00F5F1F4F0F731127E02E8C8D76
:100540008E110CC00FB607FCFACFE889F9898081BB
:1005500085FFF5CFCE010E944E02F1CFEB8DEC0F5F
:10056000FD2FF11DE35AFF4FF0829FB7F8940B8FD8
:10057000EA89FB8980818062CFCFCF93DF93EC0142
:10058000888D8823B9F0AA89BB89E889F9898C917B
:1005900085FD03C0808186FD0DC00FB607FCF7CF37
:1005A0008C9185FFF2CF808185FFEDCFCE010E9437
:1005B0004E02E9CFDF91CF910895CF93DF93FC01F5
:1005C00001900020E9F73197AF01481B590BBC019E
:1005D0008BE692E00E94D001EC0142E050E062ED37
:1005E00071E08BE692E00E94D0018C0F9D1FDF919D
:1005F000CF9108951F920F920FB60F9211242F934F
:100600003F938F939F93AF93BF9380916302909199
:100610006402A0916502B09166023091620223E00B
:10062000230F2D3758F50196A11DB11D20936202AD
:100630008093630290936402A0936502B093660274
:100640008091670290916802A0916902B0916A025C
:100650000196A11DB11D8093670290936802A0933B
:100660006902B0936A02BF91AF919F918F913F91C0
:100670002F910F900FBE0F901F90189526E8230F13
:100680000296A11DB11DD2CF1F920F920FB60F92ED
:1006900011242F933F934F935F936F937F938F9387
:1006A0009F93AF93BF93EF93FF938BE692E00E94EB
:1006B0004E02FF91EF91BF91AF919F918F917F91EA
:1006C0006F915F914F913F912F910F900FBE0F90BF
:1006D0001F9018951F920F920FB60F9211242F930F
:1006E0008F939F93EF93FF93E0917B02F0917C02B5
:1006F0008081E0918102F091820282FD1BC0908195
:10070000809184028F5F8F7320918502821741F060
:10071000E0918402F0E0E559FD4F958F80938402CB
:10072000FF91EF919F918F912F910F900FBE0F909E
:100730001F9018958081F4CF789484B5826084BD31
:1007400084B5816084BD85B5826085BD85B58160D5
:1007500085BD80916E00816080936E001092810053
:10076000809181008260809381008091810081600E
:1007700080938100809180008160809380008091CF
:10078000B10084608093B1008091B000816080935B
:10079000B00080917A00846080937A0080917A0022
:1007A000826080937A0080917A00816080937A00E1
:1007B00080917A00806880937A001092C10088E06E
:1007C0000E94870089E00E9487008AE00E948700DB
:1007D0008BE00E948700E0917B02F0917C0282E036
:1007E0008083E0917702F09178021082E0917902A3
:1007F000F0917A028FEC808310928302E0917F0265
:10080000F091800286E08083E0917D02F0917E028B
:10081000808180618083E0917D02F0917E02808101
:1008200088608083E0917D02F0917E028081806803
:100830008083E0917D02F0917E0280818F7D8083B4
:10084000C0E0D0E085ED91E00E94DD024AE050E09A
:1008500061E070E082E391E00E948C0168EE73E059
:1008600080E090E00E9417018AEE91E00E94DD0294
:100870004AE050E070E060E082E391E00E948C0189
:1008800068EE73E080E090E00E94170183E092E060
:100890000E94DD024FE050E061E070E082E191E013
:1008A0000E948C0168EE73E080E090E00E941701E6
:1008B00089E192E00E94DD024FE050E070E060E0EC
:1008C00082E191E00E948C0168EE73E080E090E0AC
:1008D0000E94170183E392E00E94DD0281E090E034
:1008E0000E944A0168EE73E080E090E00E941701E8
:1008F00088E492E00E94DD0290E080E00E944A01DC
:1009000068EE73E080E090E00E941701209709F400
:1009100099CF0E943A02882309F494CF0E940000E4
:1009200091CFEBE6F2E01382128288EE93E0A0E032
:10093000B0E084839583A683B78384E091E09183BC
:10094000808385EC90E09587848784EC90E097879E
:10095000868780EC90E0918B808B81EC90E0938B8C
:10096000828B82EC90E0958B848B86EC90E0978B69
:10097000868B118E128E138E148E0895EE0FFF1F2C
:0C0980000590F491E02D0994F894FFCF4D
:10098C00000000007002D001FD01BD022E020C021D
:10099C002002010000000000000000000100000027
:1009AC00000000000000010000000000000000003A
:1009BC000100010001000000010000000100010025
:1009CC000000000000000100010001000000000018
:1009DC000100010000000000000000000000000009
:1009EC0000000100010000000000000000000000F9
:1009FC0000000000010000000000000000000000EA
:100A0C0000000000010001000000000000000000D8
:100A1C0000000000000001000000000000000000C9
:100A2C0000000000000001000100000000000000B8
:100A3C0000000000000000000100000000000000A9
:100A4C000000010000000000010000000000000098
:100A5C0000000D0A0066756C6C2073746570203193
:100A6C003020686F726172696F0066756C6C2073F0
:100A7C0074657020313020616E7469686F726172B8
:100A8C00696F00776176652064726976652031350F
:100A9C0020686F726172696F00776176652064728D
:100AAC0069766520313520616E7469686F72617288
:100ABC00696F0068616C662073746570203130203A
:100ACC00686F726172696F0068616C66207374651F
:100ADC007020313020616E7469686F726172696F59
:020AEC00000008
:00000001FF
