:020000040000FA
:100000000C945C000C946E000C946E000C946E00CA
:100010000C946E000C946E000C946E000C946E00A8
:100020000C946E000C946E000C946E000C946E0098
:100030000C946E000C946E000C946E000C946E0088
:100040000C94E9000C946E000C946E000C946E00FD
:100050000C946E000C946E000C946E000C943301A2
:100060000C946E000C946E00000000002400270029
:100070002A0000000000250028002B0004040404CE
:100080000404040402020202020203030303030342
:10009000010204081020408001020408102001021F
:1000A00004081020000000080002010000030407FB
:1000B000000000000000000011241FBECFEFD8E0B8
:1000C000DEBFCDBF21E0A0E0B1E001C01D92A930AC
:1000D000B207E1F70E945D010C94B9010C94000095
:1000E000E1EBF0E02491EDE9F0E09491E9E8F0E053
:1000F000E491EE23C9F0222339F0233001F1A8F472
:10010000213019F1223029F1F0E0EE0FFF1FEE58F7
:10011000FF4FA591B4912FB7F894EC91811126C0AF
:1001200090959E239C932FBF08952730A9F02830E7
:10013000C9F0243049F7209180002F7D03C0209121
:1001400080002F7720938000DFCF24B52F7724BD48
:10015000DBCF24B52F7DFBCF2091B0002F772093EC
:10016000B000D2CF2091B0002F7DF9CF9E2BDACFF7
:10017000CF93DF9390E0FC01E057FF4F2491845828
:100180009F4FFC0184918823D1F090E0880F991F44
:10019000FC01E859FF4FA591B491FC01EE58FF4FC7
:1001A000C591D49161110EC09FB7F8948C91E22F44
:1001B000E0958E238C932881E223E8839FBFDF9113
:1001C000CF9108958FB7F894EC91E22BEC938FBF09
:1001D000F6CF1F920F920FB60F9211242F933F93D9
:1001E0008F939F93AF93BF938091050190910601E8
:1001F000A0910701B09108013091040123E0230F81
:100200002D3758F50196A11DB11D2093040180934F
:10021000050190930601A0930701B0930801809116
:10022000000190910101A0910201B091030101969A
:10023000A11DB11D8093000190930101A0930201C3
:10024000B0930301BF91AF919F918F913F912F91F7
:100250000F900FBE0F901F90189526E8230F02965F
:10026000A11DB11DD2CF1F920F920FB60F92112474
:100270002F933F934F935F936F937F938F939F93AE
:10028000AF93BF93EF93FF9300B605FE14C081E0D8
:100290000E947000FF91EF91BF91AF919F918F915C
:1002A0007F916F915F914F913F912F910F900FBE72
:1002B0000F901F90189580E0EBCF789484B5826002
:1002C00084BD84B5816084BD85B5826085BD85B5FA
:1002D000816085BD80916E00816080936E00109278
:1002E00081008091810082608093810080918100F3
:1002F0008160809381008091800081608093800084
:100300008091B10084608093B1008091B0008160E1
:100310008093B00080917A00846080937A0080910D
:100320007A00826080937A0080917A008160809365
:100330007A0080917A00806880937A001092C100E0
:1003400060E08EE00E94B80060E08FE00E94B8009C
:1003500061E08DE00E94B80080B7886080BF80B700
:100360008F7780BFC0E0D0E02097F1F30E940000BB
:06037000FBCFF894FFCF63
:107E0000112484B714BE81FFF0D085E080938100F7
:107E100082E08093C00088E18093C10086E0809377
:107E2000C20080E18093C4008EE0C9D0259A86E02C
:107E300020E33CEF91E0309385002093840096BBD3
:107E4000B09BFECF1D9AA8958150A9F7CC24DD24C4
:107E500088248394B5E0AB2EA1E19A2EF3E0BF2EE7
:107E6000A2D0813461F49FD0082FAFD0023811F036
:107E7000013811F484E001C083E08DD089C08234E0
:107E800011F484E103C0853419F485E0A6D080C0E4
:107E9000853579F488D0E82EFF2485D0082F10E0AE
:107EA000102F00270E291F29000F111F8ED06801E7
:107EB0006FC0863521F484E090D080E0DECF843638
:107EC00009F040C070D06FD0082F6DD080E0C81688
:107ED00080E7D80618F4F601B7BEE895C0E0D1E017
:107EE00062D089930C17E1F7F0E0CF16F0E7DF06D8
:107EF00018F0F601B7BEE89568D007B600FCFDCFD4
:107F0000A601A0E0B1E02C9130E011968C91119780
:107F100090E0982F8827822B932B1296FA010C0160
:107F200087BEE89511244E5F5F4FF1E0A038BF0790
:107F300051F7F601A7BEE89507B600FCFDCF97BE46
:107F4000E89526C08437B1F42ED02DD0F82E2BD052
:107F50003CD0F601EF2C8F010F5F1F4F84911BD097
:107F6000EA94F801C1F70894C11CD11CFA94CF0C13
:107F7000D11C0EC0853739F428D08EE10CD085E9AC
:107F80000AD08FE07ACF813511F488E018D01DD067
:107F900080E101D065CF982F8091C00085FFFCCF94
:107FA0009093C60008958091C00087FFFCCF809118
:107FB000C00084FD01C0A8958091C6000895E0E648
:107FC000F0E098E1908380830895EDDF803219F02E
:107FD00088E0F5DFFFCF84E1DECF1F93182FE3DFCA
:107FE0001150E9F7F2DF1F91089580E0E8DFEE27F6
:047FF000FF270994CA
:027FFE00040479
:00000001FF
