:100000000C945C000C946E000C946E000C946E00CA
:100010000C946E000C946E000C946E000C946E00A8
:100020000C946E000C946E000C946E000C946E0098
:100030000C946E000C946E000C946E000C946E0088
:100040000C94E9000C946E000C946E000C946E00FD
:100050000C946E000C946E000C946E000C943301A2
:100060000C946E000C946E00000000002400270029
:100070002A0000000000250028002B0004040404CE
:100080000404040402020202020203030303030342
:10009000010204081020408001020408102001021F
:1000A00004081020000000080002010000030407FB
:1000B000000000000000000011241FBECFEFD8E0B8
:1000C000DEBFCDBF21E0A0E0B1E001C01D92A930AC
:1000D000B207E1F70E945D010C94B9010C94000095
:1000E000E1EBF0E02491EDE9F0E09491E9E8F0E053
:1000F000E491EE23C9F0222339F0233001F1A8F472
:10010000213019F1223029F1F0E0EE0FFF1FEE58F7
:10011000FF4FA591B4912FB7F894EC91811126C0AF
:1001200090959E239C932FBF08952730A9F02830E7
:10013000C9F0243049F7209180002F7D03C0209121
:1001400080002F7720938000DFCF24B52F7724BD48
:10015000DBCF24B52F7DFBCF2091B0002F772093EC
:10016000B000D2CF2091B0002F7DF9CF9E2BDACFF7
:10017000CF93DF9390E0FC01E057FF4F2491845828
:100180009F4FFC0184918823D1F090E0880F991F44
:10019000FC01E859FF4FA591B491FC01EE58FF4FC7
:1001A000C591D49161110EC09FB7F8948C91E22F44
:1001B000E0958E238C932881E223E8839FBFDF9113
:1001C000CF9108958FB7F894EC91E22BEC938FBF09
:1001D000F6CF1F920F920FB60F9211242F933F93D9
:1001E0008F939F93AF93BF938091050190910601E8
:1001F000A0910701B09108013091040123E0230F81
:100200002D3758F50196A11DB11D2093040180934F
:10021000050190930601A0930701B0930801809116
:10022000000190910101A0910201B091030101969A
:10023000A11DB11D8093000190930101A0930201C3
:10024000B0930301BF91AF919F918F913F912F91F7
:100250000F900FBE0F901F90189526E8230F02965F
:10026000A11DB11DD2CF1F920F920FB60F92112474
:100270002F933F934F935F936F937F938F939F93AE
:10028000AF93BF93EF93FF9300B605FE14C081E0D8
:100290000E947000FF91EF91BF91AF919F918F915C
:1002A0007F916F915F914F913F912F910F900FBE72
:1002B0000F901F90189580E0EBCF789484B5826002
:1002C00084BD84B5816084BD85B5826085BD85B5FA
:1002D000816085BD80916E00816080936E00109278
:1002E00081008091810082608093810080918100F3
:1002F0008160809381008091800081608093800084
:100300008091B10084608093B1008091B0008160E1
:100310008093B00080917A00846080937A0080910D
:100320007A00826080937A0080917A008160809365
:100330007A0080917A00806880937A001092C100E0
:1003400060E08EE00E94B80060E08FE00E94B8009C
:1003500061E08DE00E94B80080B7886080BF80B700
:100360008F7780BFC0E0D0E02097F1F30E940000BB
:06037000FBCFF894FFCF63
:00000001FF
