:100000000C945D000C9485000C9485000C94850084
:100010000C9485000C9485000C9485000C9485004C
:100020000C9485000C9485000C9485000C9485003C
:100030000C9485000C940C030C9485000C948500A2
:100040000C946A020C9485000C94DA020C94B402AD
:100050000C9485000C9485000C9485000C9485000C
:100060000C9485000C9485000000000024002700FB
:100070002A0000000000250028002B0004040404CE
:100080000404040402020202020203030303030342
:10009000010204081020408001020408102001021F
:1000A00004081020000000080002010000030407FB
:1000B0000000000000000000CF0311241FBECFEF9E
:1000C000D8E0DEBFCDBF13E0A0E0B1E0E8E0F8E0AB
:1000D00002C005900D92A231B107D9F723E0A2E149
:1000E000B3E001C01D92AA3BB207E1F710E0CDE5F5
:1000F000D0E004C02197FE010E94FC03CC35D1075B
:10010000C9F70E9433030C9402040C940000EDEA3A
:10011000F0E02491E9E9F0E09491E5E8F0E0E49181
:10012000EE23C9F0222339F0233001F1A8F4213065
:1001300019F1223029F1F0E0EE0FFF1FEE58FF4FCA
:10014000A591B4912FB7F894EC91811126C09095A8
:100150009E239C932FBF08952730A9F02830C9F023
:10016000243049F7209180002F7D03C0209180002A
:100170002F7720938000DFCF24B52F7724BDDBCFEE
:1001800024B52F7DFBCF2091B0002F772093B000B6
:10019000D2CF2091B0002F7DF9CF9E2BDACFE9E9A5
:1001A000F0E02491E5E8F0E08491882399F090E074
:1001B000880F991FFC01E859FF4FA591B491FC01EC
:1001C000EE58FF4F859194918FB7F894EC91E22B04
:1001D000EC938FBF08950895AF92BF92CF92DF92B4
:1001E000EF92FF920F931F93CF93DF936C017B01EC
:1001F0008B01040F151FEB015E01AE18BF08C0177D
:10020000D10759F06991D601ED91FC910190F081EF
:10021000E02DC6010995892B79F7C501DF91CF91B2
:100220001F910F91FF90EF90DF90CF90BF90AF9014
:100230000895FC01538D448D252F30E0842F90E0EC
:10024000821B930B541710F0CF96089501970895D1
:10025000FC01918D828D981761F0A28DAE0FBF2F9A
:10026000B11D5D968C91928D9F5F9F73928F90E0F0
:1002700008958FEF9FEF0895FC01918D828D98175F
:1002800031F0828DE80FF11D858D90E008958FEF9C
:100290009FEF0895FC01918D228D892F90E0805C65
:1002A0009F4F821B91098F739927089584E193E0F2
:1002B0000E944A0121E0892B09F420E0822F089551
:1002C00080E090E0892B29F00E94560181110C9466
:1002D00000000895FC01A48DA80FB92FB11DA35AE9
:1002E000BF4F2C91848D90E001968F739927848F56
:1002F000A689B7892C93A089B1898C918370806479
:100300008C93938D848D981306C00288F389E02D19
:1003100080818F7D80830895EF92FF920F931F93CA
:10032000CF93DF93EC0181E0888F9B8D8C8D9813A8
:100330001AC0E889F989808185FF15C09FB7F894B4
:10034000EE89FF896083E889F98980818370806400
:1003500080839FBF81E090E0DF91CF911F910F914B
:10036000FF90EF900895F62E0B8D10E00F5F1F4F5A
:100370000F731127E02E8C8D8E110CC00FB607FC69
:10038000FACFE889F989808185FFF5CFCE010E94F7
:100390006A01F1CFEB8DEC0FFD2FF11DE35AFF4FFA
:1003A000F0829FB7F8940B8FEA89FB898081806285
:1003B000CFCFCF93DF93EC01888D8823B9F0AA8942
:1003C000BB89E889F9898C9185FD03C0808186FD10
:1003D0000DC00FB607FCF7CF8C9185FFF2CF80815F
:1003E00085FFEDCFCE010E946A01E9CFDF91CF9169
:1003F0000895CF93DF93E0911203F0911303EE0F72
:10040000FF1FEE5FFE4FC081D1810E94CF00209779
:10041000D1F480E00E948700809112039091130331
:10042000019690931303809312038091120390918D
:1004300013038F3F910524F01092130310921203BF
:10044000DF91CF910895CF3FD10511F481E0E2CF44
:10045000EDEAF0E0E491E33019F140F4E130B1F07D
:10046000E230C9F0C038D1058CF7D3CFE73011F1B5
:10047000E83041F1E430B1F78091800080628093F0
:100480008000D0938B00C0938A00C6CF84B580686B
:1004900084BDC7BDC1CF84B5806284BDC8BDBCCF9B
:1004A00080918000806880938000D0938900C09301
:1004B0008800B2CF8091B00080688093B000C09374
:1004C000B300AACF8091B00080628093B000C09347
:1004D000B400A2CF1F920F920FB60F9211242F9348
:1004E0003F938F939F93AF93BF938091B603909167
:1004F000B703A091B803B091B9033091B50323E0DD
:10050000230F2D3758F50196A11DB11D2093B5037A
:100510008093B6039093B703A093B803B093B90345
:100520008091B1039091B203A091B303B091B40351
:100530000196A11DB11D8093B1039093B203A093C6
:10054000B303B093B403BF91AF919F918F913F914B
:100550002F910F900FBE0F901F90189526E8230F34
:100560000296A11DB11DD2CF1F920F920FB60F920E
:1005700011242F933F934F935F936F937F938F93A8
:100580009F93AF93BF93EF93FF9384E193E00E9417
:100590006A01FF91EF91BF91AF919F918F917F91F0
:1005A0006F915F914F913F912F910F900FBE0F90E0
:1005B0001F9018951F920F920FB60F9211242F9330
:1005C0008F939F93EF93FF93E0912403F091250382
:1005D0008081E0912A03F0912B0382FD1BC0908162
:1005E00080912D038F5F8F7320912E03821741F02E
:1005F000E0912D03F0E0EC5EFC4F958F80932D038E
:10060000FF91EF919F918F912F910F900FBE0F90BF
:100610001F9018958081F4CF1F920F920FB60F9202
:1006200011242F933F934F935F936F937F938F93F7
:100630009F93AF93BF93EF93FF93E0910001F091ED
:1006400001010995FF91EF91BF91AF919F918F911A
:100650007F916F915F914F913F912F910F900FBEBE
:100660000F901F901895789484B5826084BD84B5EE
:10067000816084BD85B5826085BD85B5816085BD9D
:1006800080916E00816080936E0010928100809155
:1006900081008260809381008091810081608093DD
:1006A0008100809180008160809380008091B10002
:1006B00084608093B1008091B00081608093B0002D
:1006C00080917A00846080937A0080917A008260C1
:1006D00080937A0080917A00816080937A00809183
:1006E0007A00806880937A001092C100E091240320
:1006F000F091250382E08083E0912003F0912103B3
:100700001082E0912203F09123038FEC80831092FA
:100710002C03E0912803F091290386E08083E09187
:100720002603F0912703808180618083E091260376
:10073000F0912703808188608083E0912603F09107
:100740002703808180688083E0912603F09127034E
:1007500080818F7D80830E94CF0080E18093810023
:100760001092800080E49CE0909387008093860044
:1007700081E18093810089EF91E090930101809362
:10078000000181E080936F00C0E0D0E02097F1F39A
:100790000E9456018823D1F30E940000F7CFE4E1C4
:1007A000F3E01382128288EE93E0A0E0B0E084834D
:1007B0009583A683B78384E093E09183808385EC5F
:1007C00090E09587848784EC90E09787868780EC1B
:1007D00090E0918B808B81EC90E0938B828B82EC0C
:1007E00090E0958B848B86EC90E0978B868B118EB6
:1007F000128E138E148E0895EE0FFF1F0590F49144
:08080000E02D0994F894FFCFEC
:10080800EB0080008300860089008C008F00920036
:10081800950098009B009E00A200A500A700AA00D2
:10082800AD00B000B300B600B900BC00BE00C10006
:10083800C400C600C900CB00CE00D000D300D5004C
:10084800D700DA00DC00DE00E000E200E400E600A9
:10085800E800E900EB00ED00EE00F000F100F30025
:10086800F400F500F600F700F800F900FA00FB00C4
:10087800FC00FC00FD00FD00FE00FE00FE00FE0086
:10088800FE00FE00FE00FE00FE00FE00FD00FD0072
:10089800FC00FC00FB00FA00FA00F900F800F70081
:1008A800F600F400F300F200F000EF00ED00EC00B9
:1008B800EA00E800E700E500E300E100DF00DD0012
:1008C800DB00D800D600D400D200CF00CD00CA008B
:1008D800C800C500C200C000BD00BA00B700B5001E
:1008E800B200AF00AC00A900A600A300A0009D00C4
:1008F8009A009700940091008E008A008700840077
:1009080081007E007B007800750071006E006B002E
:100918006800650062005F005C00590056005300E3
:1009280050004D004A004800450042003F003D008D
:100938003A0037003500320030002D002B00290026
:1009480027002400220020001E001C001A001800A6
:10095800170015001300120010000F000D000C0006
:100968000B00090008000700060005000500040048
:100978000300030002000200010001000100010061
:100988000100010001000100010001000200020055
:100998000300030004000500060007000800090022
:1009A8000A000B000C000E000F00110012001400CA
:1009B8001600170019001B001D001F00210023004E
:1009C800250028002A002C002F00310034003600B2
:1009D80039003B003E0041004300460049004C00FE
:1009E8004F005200550058005A005D006100640035
:1009F80067006A006D0070007300760079007C0063
:100A0800000000008C01EC001901D9014A012801FD
:020A18003C019F
:00000001FF
