:100000000C945D000C9485000C9485000C94850084
:100010000C9485000C9485000C9485000C9485004C
:100020000C9485000C9485000C9485000C9485003C
:100030000C9485000C9485000C9485000C9485002C
:100040000C940F030C9485000C9485000C9485008F
:100050000C9485000C9485000C9485000C9485000C
:100060000C9485000C94850000000008000201003B
:100070000003040700000000000000000000000072
:10008000250028002B0000000000240027002A0083
:10009000040404040404040402020202020203032E
:1000A0000303030301020408102040800102040836
:1000B0001020010204081020AC0411241FBECFEF51
:1000C000D8E0DEBFCDBF11E0A0E0B1E0ECE7FDE09D
:1000D00002C005900D92A834B107D9F721E0A8E439
:1000E000B1E001C01D92A936B207E1F710E0CDE5FD
:1000F000D0E004C02197FE010E94B606CC35D1079E
:10010000C9F70E9459030C94BC060C94000090E0BF
:10011000FC01EC55FF4F249180579F4FFC018491C7
:10012000882399F090E0880F991FFC01EA57FF4F50
:10013000A591B491FC01E458FF4F859194918FB73C
:10014000F894EC91E22BEC938FBF089590E0FC01C2
:10015000E859FF4F2491FC01EC55FF4F3491FC010D
:10016000E057FF4FE491EE23C9F0222339F023300A
:1001700001F1A8F4213019F1223029F1F0E0EE0F5D
:10018000FF1FE458FF4FA591B4918FB7F894EC91FD
:10019000611126C030953E233C938FBF08952730D0
:1001A000A9F02830C9F0243049F7809180008F7D74
:1001B00003C0809180008F7780938000DFCF84B56B
:1001C0008F7784BDDBCF84B58F7DFBCF8091B0006E
:1001D0008F778093B000D2CF8091B0008F7DF9CF20
:1001E0003E2BDACF3FB7F89480914D0190914E01AC
:1001F000A0914F01B091500126B5A89B05C02F3F9B
:1002000019F00196A11DB11D3FBFBA2FA92F982F3C
:100210008827BC01CD01620F711D811D911D42E037
:10022000660F771F881F991F4A95D1F708958F92FF
:100230009F92AF92BF92CF92DF92EF92FF924B01CB
:100240005C010E94F2006B017C010E94F2006C19BB
:100250007D098E099F09683E734081059105A8F3C9
:1002600021E0821A9108A108B10888EEC80E83E047
:10027000D81EE11CF11C81149104A104B10429F7DA
:10028000FF90EF90DF90CF90BF90AF909F908F90B6
:100290000895AF92BF92CF92DF92EF92FF920F93A9
:1002A0001F93CF93DF936C017B018B01040F151F0C
:1002B000EB015E01AE18BF08C017D10759F0699174
:1002C000D601ED91FC910190F081E02DC6010995D8
:1002D000892B79F7C501DF91CF911F910F91FF9085
:1002E000EF90DF90CF90BF90AF900895089590E089
:1002F00080E00895FC0101900020E9F73197AF01FB
:10030000481B590BBC0181E591E00C9449018F9287
:100310009F92AF92BF920F931F93CF93DF93CDB76E
:10032000DEB7A1970FB6F894DEBF0FBECDBF19A2FE
:10033000423008F44AE08E010F5D1F4F842E912C4D
:10034000B12CA12CA50194010E949406E62FB901BD
:10035000CA01EA30F4F4E05DD801EE938D01232B5D
:10036000242B252B79F790E080E0109719F0CD0130
:100370000E947A01A1960FB6F894DEBF0FBECDBFE2
:10038000DF91CF911F910F91BF90AF909F908F9071
:100390000895E95CE1CFCF93DF93EC0160E08E81BB
:1003A0000E94A60061E08E810E94A60060E08E811E
:1003B0000E94A6008BE891E00197F1F7DF91CF91C1
:1003C0000895CF92DF92EF92FF920F931F93CF93F6
:1003D000DF936C017C0187E0E80EF11CD0E0C0E007
:1003E000062F10E0B8010C2E02C0759567950A948F
:1003F000E2F76170F70181917F010E94A6002196CA
:10040000C430D10579F7C601DF91CF911F910F91CB
:10041000FF90EF90DF90CF900C94CB01CF92DF92C2
:10042000EF92FF920F931F93CF93DF93EC01F62E81
:10043000642F8C810E94A6008D818F3F19F060E0AF
:100440000E94A6000F2D10E08F8584FF25C06E014D
:1004500087E0C80ED11CF12CE12CB8010E2C02C093
:10046000759567950A94E2F76170F60181916F01C5
:100470000E94A600FFEFEF1AFF0A88E0E816F104D9
:1004800061F7CE01DF91CF911F910F91FF90EF9017
:10049000DF90CF900C94CB01B80184E075956795FF
:1004A0008A95E1F7CE010E94E1016F2DCE01DF9127
:1004B000CF911F910F91FF90EF90DF90CF900C9410
:1004C000E10140E0682F81E591E00C940E02CF93AA
:1004D000DF93823029F490916001986090936001DD
:1004E000809364011092650180E48093660180E14D
:1004F0008093670180E580936801809155010E9497
:100500008700809156018F3F11F00E9487008091F3
:1005100057010E948700C1E5D1E09E01215531407D
:100520008091600184FD0AC084E090E02196281744
:1005300039073CF48E810E948700EFCF88E090E07D
:10054000F5CF8BE39DE00197F1F760E080915501D5
:100550000E94A60060E0809157010E94A600809151
:1005600056018F3F19F060E00E94A6008091600163
:1005700084FD39C063E081E591E00E94E101CBE4B4
:10058000D6E4CE010197F1F763E081E591E00E94A6
:10059000E1012197F1F763E081E591E00E94E1013B
:1005A00083E592E00197F1F762E081E591E00E9436
:1005B000E1018091600180620E94610284E0809389
:1005C00061018CE00E94610281E00E9461028BE384
:1005D0009FE10197F1F782E08093620186E0DF916D
:1005E000CF910C94610280620E9461028BE496E4D8
:1005F0000197F1F78091600180620E94610283E5BA
:1006000092E00197F1F78091600180620E9461029F
:10061000D0CF41E00E940E0281E090E008951F9249
:100620000F920FB60F9211242F933F938F939F93A6
:10063000AF93BF938091490190914A01A0914B01E2
:10064000B0914C013091480123E0230F2D3758F52C
:100650000196A11DB11D20934801809349019093FB
:100660004A01A0934B01B0934C0180914D019091B0
:100670004E01A0914F01B09150010196A11DB11DF5
:1006800080934D0190934E01A0934F01B093500180
:10069000BF91AF919F918F913F912F910F900FBE7E
:1006A0000F901F90189526E8230F0296A11DB11DEB
:1006B000D2CF789484B5826084BD84B5816084BDD6
:1006C00085B5826085BD85B5816085BD80916E00F0
:1006D000816080936E001092810080918100826021
:1006E000809381008091810081608093810080915E
:1006F00080008160809380008091B100846080934D
:10070000B1008091B00081608093B00080917A0048
:10071000846080937A0080917A00826080937A006E
:1007200080917A00816080937A0080917A0080685D
:1007300080937A001092C10082E00E946702E1E09B
:10074000809164018111E0E0E195F0E0EF5AFE4F05
:10075000848980680E94610280E191E00E947A01B0
:10076000E0916401E23008F05FC0E150F0E0EF5A40
:10077000FE4F848980680E9461028CE191E00E94B2
:100780007A0168EB7BE080E090E00E941701C0E016
:10079000D0E0E0916401E23008F048C0E150F0E0C0
:1007A000EF5AFE4F848980680E9461028AE291E0DC
:1007B0000E947A01C0900001D0900101E0900201F6
:1007C000F0900301A7019601C701B6010E948F06B0
:1007D000882371F183E391E00E947A018FE391E035
:1007E0000E947A0164EF71E080E090E00E941701BE
:1007F0002AE939E949ED5FE3609100017091010157
:1008000080910201909103010E94CB04609300014A
:10081000709301018093020190930301209709F4E2
:10082000B8CF0E940000B5CFE1E0A0CFE1E0B7CFA4
:1008300046015701E894B7F82FEF3FEF4FE75FE726
:10084000C501B4010E948F0681110DC02FEF3FEF4B
:100850004FE75FE7C501B4010E94370518161CF485
:1008600087E391E0B9CF2FEF3FEF4FE75FE4C70198
:10087000B6010E941D0618161CF48BE391E0ACCF64
:100880002FEF3FEF4FE75FECC701B6010E9437053E
:1008900087FDF3CF20E030E0A901C701B6010E9437
:1008A000370587FF0AC041E06DE281E591E00E94D3
:1008B0000E02F7FAF094F7F8F0942AE037ED43EAE5
:1008C0005BE3C701B6010E94CB044B015C010E94AF
:1008D0003C056B017C010E946B059B01AC01C501CD
:1008E000B4010E94CA044B015C014AE0C701B60191
:1008F0000E94870141E06EE281E591E00E940E02D4
:1009000020E030E040E251E4C501B4010E9422063B
:100910004B015C010E943C056B01F12CE12C4AE08B
:10092000C701B6010E948701C701B6010E946B058D
:100930009B01AC01C501B4010E94CA0420E030E073
:1009400040E251E40E9422060E943C0590E080E0D3
:100950004AE00E94870142CFE1E5F1E01382128272
:1009600088E091E0918380838CE084838FEF85839E
:100970008BE0868385E0878384E0808783E08187BE
:1009800082E082871386148615861686178681E094
:100990000C9467025058BB27AA270E94E2040C94CB
:1009A000E3050E94D50538F00E94DC0520F039F4FB
:1009B0009F3F19F426F40C94D2050EF4E095E7FB62
:1009C0000C94CC05E92F0E94F40558F3BA1762077E
:1009D00073078407950720F079F4A6F50C941606A2
:1009E0000EF4E0950B2EBA2FA02D0B01B90190014A
:1009F0000C01CA01A0011124FF27591B99F0593F8E
:100A000050F4503E68F11A16F040A22F232F342FD5
:100A10004427585FF3CF469537952795A795F04023
:100A20005395C9F77EF41F16BA0B620B730B840B38
:100A3000BAF09150A1F0FF0FBB1F661F771F881FF0
:100A4000C2F70EC0BA0F621F731F841F48F4879548
:100A500077956795B795F7959E3F08F0B0CF93953A
:100A6000880F08F09927EE0F9795879508950E94B3
:100A7000A80508F481E008950E94FC0588F09F57BE
:100A800098F0B92F9927B751B0F0E1F0660F771FB2
:100A9000881F991F1AF0BA95C9F714C0B13091F0A8
:100AA0000E941606B1E008950C941606672F782F61
:100AB0008827B85F39F0B93FCCF38695779567956D
:100AC000B395D9F73EF490958095709561957F4FD9
:100AD0008F4F9F4F0895E89409C097FB3EF490957F
:100AE0008095709561957F4F8F4F9F4F9923A9F007
:100AF000F92F96E9BB279395F69587957795679596
:100B0000B795F111F8CFFAF4BB0F11F460FF1BC0D9
:100B10006F5F7F4F8F4F9F4F16C0882311F096E96C
:100B200011C0772321F09EE8872F762F05C066231A
:100B300071F096E8862F70E060E02AF09A95660FD3
:100B4000771F881FDAF7880F9695879597F908958C
:100B5000990F0008550FAA0BE0E8FEEF16161706CE
:100B6000E807F907C0F012161306E407F50798F036
:100B7000621B730B840B950B39F40A2661F0232B4F
:100B8000242B252B21F408950A2609F4A140A695CB
:100B90008FEF811D811D089597F99F6780E870E0B0
:100BA00060E008959FEF80EC089500240A941616E3
:100BB000170618060906089500240A94121613064B
:100BC000140605060895092E0394000C11F48823D9
:100BD00052F0BB0F40F4BF2B11F460FF04C06F5FF5
:100BE0007F4F8F4F9F4F089557FD9058440F551FCB
:100BF00059F05F3F71F04795880F97FB991F61F09F
:100C00009F3F79F087950895121613061406551F15
:100C1000F2CF4695F1DF08C0161617061806991F81
:100C2000F1CF86957105610508940895E894BB2776
:100C300066277727CB0197F908950E94A80508F445
:100C40008FEF08950E9435060C94E3050E94D505A8
:100C500038F00E94DC0520F0952311F00C94CC05AF
:100C60000C94D20511240C9417060E94F40570F31D
:100C7000959FC1F3950F50E0551F629FF001729F41
:100C8000BB27F00DB11D639FAA27F00DB11DAA1F50
:100C9000649F6627B00DA11D661F829F2227B00D9D
:100CA000A11D621F739FB00DA11D621F839FA00D28
:100CB000611D221F749F3327A00D611D231F849F78
:100CC000600D211D822F762F6A2F11249F575040CF
:100CD0009AF0F1F088234AF0EE0FFF1FBB1F661F4A
:100CE000771F881F91505040A9F79E3F510580F013
:100CF0000C94CC050C9417065F3FE4F3983ED4F3B4
:100D0000869577956795B795F795E7959F5FC1F7B6
:100D1000FE2B880F911D9695879597F908950E944F
:100D2000A805880B990B0895A1E21A2EAA1BBB1BDC
:100D3000FD010DC0AA1FBB1FEE1FFF1FA217B307A7
:100D4000E407F50720F0A21BB30BE40BF50B661FBD
:100D5000771F881F991F1A9469F760957095809581
:100D600090959B01AC01BD01CF010895EE0FFF1FCF
:0C0D70000590F491E02D0994F894FFCF59
:100D7C0000002040000000000903490177017601C2
:100D8C00486F6C61206D756E646F21004C4344207C
:100D9C00313678322054657374006375656E7461F6
:100DAC003A20006E616E00696E66006F76660020F8
:080DBC0020202020202000006F
:00000001FF
