:020000040000FA
:100000000C9462000C948A000C948A000C948A0070
:100010000C948A000C948A000C948A000C948A0038
:100020000C948A000C948A000C948A000C948A0028
:100030000C948A000C948A000C948A000C948A0018
:100040000C9460020C9402030C94D0020C94AA024B
:100050000C948A000C948A000C948A000C948A00F8
:100060000C948A000C948A000000000023002600F3
:10007000290000000000240027002A0000000000E2
:10008000250028002B0004040404040404040202D4
:100090000202020203030303030301020408102007
:1000A0004080010204081020010204081020000012
:1000B0000008000201000003040700000000000027
:1000C00000001D0411241FBECFEFD8E0DEBFCDBF5E
:1000D00011E0A0E0B1E0E4EAF8E002C005900D9282
:1000E000A033B107D9F721E0A0E3B1E001C01D9230
:1000F000AB3DB207E1F710E0C2E6D0E004C02197C3
:10010000FE010E944A04C136D107C9F70E941403B8
:100110000C9450040C940000833081F028F481305A
:1001200099F08230A9F008958730A9F08830C9F09D
:100130008430B1F4809180008F7D03C08091800075
:100140008F7780938000089584B58F7784BD08955C
:1001500084B58F7DFBCF8091B0008F778093B00006
:1001600008958091B0008F7DF9CF1F93CF93DF93D7
:10017000E5EBF0E09491E1EAF0E0D491EDE8F0E015
:10018000C491CC23B9F0182F992319F0892F0E941C
:100190008C00EC2FF0E0EE0FFF1FE458FF4FA5910D
:1001A000B4918FB7F894EC91111108C0D095DE236B
:1001B000DC938FBFDF91CF911F910895DE2BF8CF95
:1001C000CF93DF9390E0FC01E656FF4F24918A57CE
:1001D0009F4FFC0184918823D1F090E0880F991FF4
:1001E000FC01EE58FF4FA591B491FC01E458FF4F7C
:1001F000C591D49161110EC09FB7F8948C91E22FF4
:10020000E0958E238C932881E223E8839FBFDF91C2
:10021000CF9108958FB7F894EC91E22BEC938FBFB8
:10022000F6CF3FB7F89480913A0190913B01A091AD
:100230003C01B0913D0126B5A89B05C02F3F19F0A8
:100240000196A11DB11D3FBFBA2FA92F982F882756
:10025000BC01CD01620F711D811D911D42E0660F31
:10026000771F881F991F4A95D1F70895AF92BF92C3
:10027000CF92DF92EF92FF920F931F93CF93DF9372
:100280006C017B018B01040F151FEB015E01AE18A1
:10029000BF08C017D10759F06991D601ED91FC91C3
:1002A0000190F081E02DC6010995892B79F7C501F0
:1002B000DF91CF911F910F91FF90EF90DF90CF9042
:1002C000BF90AF900895FC01538D448D252F30E0F1
:1002D000842F90E0821B930B541710F0CF96089553
:1002E00001970895FC01918D828D981761F0A28D80
:1002F000AE0FBF2FB11D5D968C91928D9F5F9F7346
:10030000928F90E008958FEF9FEF0895FC01918DFB
:10031000828D981731F0828DE80FF11D858D90E068
:1003200008958FEF9FEF0895FC01918D228D892F05
:1003300090E0805C9F4F821B91098F7399270895ED
:100340008EE391E00E94940121E0892B09F420E0E2
:10035000822F089580E090E0892B29F00E94A0016F
:1003600081110C9400000895FC01A48DA80FB92FF1
:10037000B11DA35ABF4F2C91848D90E001968F73CD
:100380009927848FA689B7892C93A089B1898C91EC
:10039000837080648C93938D848D981306C002883B
:1003A000F389E02D80818F7D80830895EF92FF9205
:1003B0000F931F93CF93DF93EC0181E0888F9B8D88
:1003C0008C8D98131AC0E889F989808185FF15C042
:1003D0009FB7F894EE89FF896083E889F989808165
:1003E0008370806480839FBF81E090E0DF91CF9134
:1003F0001F910F91FF90EF900895F62E0B8D10E056
:100400000F5F1F4F0F731127E02E8C8D8E110CC0C4
:100410000FB607FCFACFE889F989808185FFF5CF0F
:10042000CE010E94B401F1CFEB8DEC0FFD2FF11D39
:10043000E35AFF4FF0829FB7F8940B8FEA89FB894C
:1004400080818062CFCFCF93DF93EC01888D8823AA
:10045000B9F0AA89BB89E889F9898C9185FD03C027
:10046000808186FD0DC00FB607FCF7CF8C9185FF0C
:10047000F2CF808185FFEDCFCE010E94B401E9CF9C
:10048000DF91CF910895CF93DF93FC01019000207D
:10049000E9F73197AF01481B590BBC018EE391E09E
:1004A0000E943601EC0142E050E062E171E08EE32F
:1004B00091E00E9436018C0F9D1FDF91CF9108952E
:1004C0001F920F920FB60F9211242F933F938F9389
:1004D0009F93AF93BF938091360190913701A09184
:1004E0003801B09139013091350123E0230F2D37C8
:1004F00058F50196A11DB11D209335018093360159
:1005000090933701A0933801B093390180913A015B
:1005100090913B01A0913C01B0913D010196A11D3C
:10052000B11D80933A0190933B01A0933C01B0939D
:100530003D01BF91AF919F918F913F912F910F906E
:100540000FBE0F901F90189526E8230F0296A11D4D
:10055000B11DD2CF1F920F920FB60F9211242F937D
:100560003F934F935F936F937F938F939F93AF933B
:10057000BF93EF93FF938EE391E00E94B401FF914C
:10058000EF91BF91AF919F918F917F916F915F910B
:100590004F913F912F910F900FBE0F901F90189584
:1005A0001F920F920FB60F9211242F938F939F9348
:1005B000EF93FF93E0914E01F0914F018081E09124
:1005C0005401F091550182FD1BC09081809157012B
:1005D0008F5F8F7320915801821741F0E09157018E
:1005E000F0E0E25CFE4F958F80935701FF91EF9111
:1005F0009F918F912F910F900FBE0F901F90189584
:100600008081F4CF1F920F920FB60F9211248F9317
:100610008EB58093330181E0809334018F910F90E8
:100620000FBE0F901F901895789484B5826084BD9A
:1006300084B5816084BD85B5826085BD85B58160E6
:1006400085BD80916E00816080936E001092810064
:10065000809181008260809381008091810081601F
:1006600080938100809180008160809380008091E0
:10067000B10084608093B1008091B000816080936C
:10068000B00080917A00846080937A0080917A0033
:10069000826080937A0080917A00816080937A00F2
:1006A00080917A00806880937A001092C100E09176
:1006B0004E01F0914F0182E08083E0914A01F09178
:1006C0004B011082E0914C01F0914D018FEC808341
:1006D00010925601E0915201F091530186E080831F
:1006E000E0915001F0915101808180618083E0911F
:1006F0005001F0915101808188608083E091500128
:10070000F0915101808180688083E0915001F091E7
:10071000510180818F7D808360E082E00E94E00053
:1007200061E087E00E94E00061E08CE00E94E00070
:100730008CB580648CBD109234018CB580688CBD02
:10074000789420EB222E20E0322E3CE9832E30E0FC
:10075000932E08E810E0C0E0D0E0AA24A394B12CC6
:1007600080913401882309F452C080913301813093
:1007700009F058C00E94B50085E191E00E94430253
:10078000F1018491F401F490F801E490EE2009F471
:100790004FC081110E948C00EE2DF0E0EE0FFF1F84
:1007A000E859FF4FA591B4918C91F82209F440C00B
:1007B000B0923201A09231018091310180933001D9
:1007C000809130018EBD0E9411012B013C0184E615
:1007D000C82ED12CE12CF12C0E941101641975094D
:1007E00086099709683E734081059105A8F3F1E0F9
:1007F000CF1AD108E108F10828EE420E23E0521E7C
:10080000611C711CC114D104E104F10429F7209783
:1008100009F4A6CF0E94A001882309F4A1CF0E9469
:1008200000009ECF80E00E94B50082E291E0A6CF5A
:100830001092320110923101BFCFEEE3F1E013824A
:10084000128288EE93E0A0E0B0E084839583A683D3
:10085000B78384E091E09183808385EC90E0958775
:10086000848784EC90E09787868780EC90E0918B7A
:10087000808B81EC90E0938B828B82EC90E0958B67
:10088000848B86EC90E0978B868B118E128E138E64
:10089000148E0895EE0FFF1F0590F491E02D09943A
:1008A000F894FFCF00000000D60136016301230257
:1008B0009401720186010D0A00536C617665204C2B
:1008C0004544204F4E00536C617665204C454420D2
:0408D0004F46460049
:107E0000112484B714BE81FFF0D085E080938100F7
:107E100082E08093C00088E18093C10086E0809377
:107E2000C20080E18093C4008EE0C9D0259A86E02C
:107E300020E33CEF91E0309385002093840096BBD3
:107E4000B09BFECF1D9AA8958150A9F7CC24DD24C4
:107E500088248394B5E0AB2EA1E19A2EF3E0BF2EE7
:107E6000A2D0813461F49FD0082FAFD0023811F036
:107E7000013811F484E001C083E08DD089C08234E0
:107E800011F484E103C0853419F485E0A6D080C0E4
:107E9000853579F488D0E82EFF2485D0082F10E0AE
:107EA000102F00270E291F29000F111F8ED06801E7
:107EB0006FC0863521F484E090D080E0DECF843638
:107EC00009F040C070D06FD0082F6DD080E0C81688
:107ED00080E7D80618F4F601B7BEE895C0E0D1E017
:107EE00062D089930C17E1F7F0E0CF16F0E7DF06D8
:107EF00018F0F601B7BEE89568D007B600FCFDCFD4
:107F0000A601A0E0B1E02C9130E011968C91119780
:107F100090E0982F8827822B932B1296FA010C0160
:107F200087BEE89511244E5F5F4FF1E0A038BF0790
:107F300051F7F601A7BEE89507B600FCFDCF97BE46
:107F4000E89526C08437B1F42ED02DD0F82E2BD052
:107F50003CD0F601EF2C8F010F5F1F4F84911BD097
:107F6000EA94F801C1F70894C11CD11CFA94CF0C13
:107F7000D11C0EC0853739F428D08EE10CD085E9AC
:107F80000AD08FE07ACF813511F488E018D01DD067
:107F900080E101D065CF982F8091C00085FFFCCF94
:107FA0009093C60008958091C00087FFFCCF809118
:107FB000C00084FD01C0A8958091C6000895E0E648
:107FC000F0E098E1908380830895EDDF803219F02E
:107FD00088E0F5DFFFCF84E1DECF1F93182FE3DFCA
:107FE0001150E9F7F2DF1F91089580E0E8DFEE27F6
:047FF000FF270994CA
:027FFE00040479
:00000001FF
