:100000000C9458000C9480000C9480000C94800098
:100010000C9480000C9480000C9480000C94800060
:100020000C9480000C9480000C9480000C94800050
:100030000C9480000C9480000C9480000C94800040
:100040000C945B030C9480000C94CB030C94A503DC
:100050000C9480000C9480000C9480000C94800020
:100060000C94FD030C948000000000002500280083
:100070002B00040404040404040402020202020229
:10008000030303030303010204081020408001025C
:1000900004081020010204081020000000080002DB
:1000A00001000003040700000000000000001C0520
:1000B00011241FBECFEFD8E0DEBFCDBF11E0A0E01E
:1000C000B1E0E8E7FFE002C005900D92AE32B10763
:1000D000D9F722E0AEE2B1E001C01D92AB39B20720
:1000E000E1F710E0C8E5D0E004C02197FE010E94CE
:1000F000B407C735D107C9F70E9455050C94BA0754
:100100000C94000090E0FC01E656FF4F2491FC01A6
:10011000EA57FF4F3491FC01EE58FF4FE491EE2374
:10012000C9F0222339F0233001F1A8F4213019F16C
:10013000223029F1F0E0EE0FFF1FE859FF4FA591A3
:10014000B4918FB7F894EC91611126C030953E239D
:100150003C938FBF08952730A9F02830C9F0243090
:1001600049F7809180008F7D03C0809180008F7758
:1001700080938000DFCF84B58F7784BDDBCF84B5DB
:100180008F7DFBCF8091B0008F778093B000D2CF6E
:100190008091B0008F7DF9CF3E2BDACF3FB7F89436
:1001A0008091EE019091EF01A091F001B091F101E9
:1001B00026B5A89B05C02F3F19F00196A11DB11DC2
:1001C0003FBFBA2FA92F982F8827BC01CD01620FFE
:1001D000711D811D911D42E0660F771F881F991FB9
:1001E0004A95D1F708958F929F92AF92BF92CF9286
:1001F000DF92EF92FF924B015C010E94CE006B01F7
:100200007C010E94CE006C197D098E099F09683E11
:10021000734081059105A8F321E0821A9108A10895
:10022000B10888EEC80E83E0D81EE11CF11C8114D1
:100230009104A104B10429F7FF90EF90DF90CF90D3
:10024000BF90AF909F908F9008958091E70190911B
:10025000E601891B990B089508950895AF92BF9206
:10026000CF92DF92EF92FF920F931F93CF93DF9382
:100270006C017B018B01040F151FEB015E01AE18B1
:10028000BF08C017D10759F06991D601ED91FC91D3
:100290000190F081E02DC6010995892B79F7C50100
:1002A000DF91CF911F910F91FF90EF90DF90CF9052
:1002B000BF90AF900895FC01538D448D252F30E001
:1002C000842F90E0821B930B541710F0CF96089563
:1002D00001970895FC01918D828D981761F0A28D90
:1002E000AE0FBF2FB11D5D968C91928D9F5F9F7356
:1002F000928F90E008958FEF9FEF0895FC01918D0C
:10030000828D981731F0828DE80FF11D858D90E078
:1003100008958FEF9FEF0895FC01918D228D892F15
:1003200090E0805C9F4F821B91098F7399270895FD
:1003300082EF91E00E948C0121E0892B09F420E0FA
:10034000822F089580E090E0892B29F00E94980187
:1003500081110C9400000895FC01A48DA80FB92F01
:10036000B11DA35ABF4F2C91848D90E001968F73DD
:100370009927848FA689B7892C93A089B1898C91FC
:10038000837080648C93938D848D981306C002884B
:10039000F389E02D80818F7D80830895EF92FF9215
:1003A0000F931F93CF93DF93EC0181E0888F9B8D98
:1003B0008C8D98131AC0E889F989808185FF15C052
:1003C0009FB7F894EE89FF896083E889F989808175
:1003D0008370806480839FBF81E090E0DF91CF9144
:1003E0001F910F91FF90EF900895F62E0B8D10E066
:1003F0000F5F1F4F0F731127E02E8C8D8E110CC0D5
:100400000FB607FCFACFE889F989808185FFF5CF1F
:10041000CE010E94AC01F1CFEB8DEC0FFD2FF11D51
:10042000E35AFF4FF0829FB7F8940B8FEA89FB895C
:1004300080818062CFCFCF93DF93EC01888D8823BA
:10044000B9F0AA89BB89E889F9898C9185FD03C037
:10045000808186FD0DC00FB607FCF7CF8C9185FF1C
:10046000F2CF808185FFEDCFCE010E94AC01E9CFB4
:10047000DF91CF91089520914F01260F3327331F2D
:1004800021323105ECF42091C001FC0190E080E0C4
:10049000243069F082E00895A0914F012191AC01D0
:1004A000415D5E4FA40FB52FB11D2C9301968617A9
:1004B00098F380914F01680F60934F0180E0089599
:1004C00081E008951092C00181E08093BF011092F5
:1004D000BA0161E082E10E94820061E083E10E9452
:1004E0008200E9EBF0E080818E7F808380818D7FC8
:1004F000808388E48093B80085E48093BC000895ED
:10050000CF93DF9391E090932E018823B9F0C091AF
:10051000B800D091BA008091BC008A7B8093BC0067
:1005200060E082E10E94820060E083E10E9482003C
:100530000E946202D093BA00C093B800DF91CF91BD
:1005400008950895E091E6018091E701E81730F4FD
:10055000F0E0EA53FE4F808190E008958FEF9FEF27
:1005600008959091E6018091E7012FEF3FEF9817F2
:1005700048F4E92FF0E0EA53FE4F208130E09F5F1E
:100580009093E601C9010895CF92DF92EF92FF9216
:100590000F931F93CF93DF937C01CB018A012091AE
:1005A0007601222389F0EB016B01C40ED51ECC1518
:1005B000DD0569F06991D701ED91FC910190F08121
:1005C000E02DC7010995F3CF642F0E943B02C801BB
:1005D000DF91CF911F910F91FF90EF90DF90CF901F
:1005E0000895CF93DF931F92CDB7DEB76983209133
:1005F00076012223F9F020919901203258F021E070
:1006000030E0FC013383228390E080E00F90DF91A3
:10061000CF91089580917701E82FF0E0E858FE4FE0
:10062000998190838F5F809377018093990181E016
:1006300090E0ECCF61E0CE0101960E943B02F7CF43
:1006400090E080E0089585ED8093BC008091C20128
:100650009091C301A091C401B091C5010796A11D5D
:10066000B11D23E0B695A795979587952A95D1F763
:100670002091BC0024FD03C01092C0010895409158
:10068000C2015091C3016091C4017091C501452B15
:10069000462B472B69F30097A105B10541F02AE2EB
:1006A0002A95F1F700C00197A109B109E1CF809126
:1006B000C1010C9480021F920F920FB60F92112469
:1006C0002F933F938F939F93AF93BF938091EA01B2
:1006D0009091EB01A091EC01B091ED013091E90115
:1006E00023E0230F2D3758F50196A11DB11D20934E
:1006F000E9018093EA019093EB01A093EC01B093A0
:10070000ED018091EE019091EF01A091F001B09187
:10071000F1010196A11DB11D8093EE019093EF01AF
:10072000A093F001B093F101BF91AF919F918F9190
:100730003F912F910F900FBE0F901F90189526E8B4
:10074000230F0296A11DB11DD2CF1F920F920FB69B
:100750000F9211242F933F934F935F936F937F9347
:100760008F939F93AF93BF93EF93FF9382EF91E0AB
:100770000E94AC01FF91EF91BF91AF919F918F913A
:100780007F916F915F914F913F912F910F900FBE8D
:100790000F901F9018951F920F920FB60F92112471
:1007A0002F938F939F93EF93FF93E0910202F09129
:1007B00003028081E0910802F091090282FD1BC0D2
:1007C000908180910B028F5F8F7320910C028217B2
:1007D00041F0E0910B02F0E0EE50FE4F958F8093D8
:1007E0000B02FF91EF919F918F912F910F900FBE70
:1007F0000F901F9018958081F4CF1F920F920FB623
:100800000F9211242F933F934F935F936F937F9396
:100810008F939F93AF93BF93EF93FF938091B90012
:10082000887F803609F44AC0F0F5883209F4A7C001
:1008300018F5803109F49BC0B8F4882309F4F9C095
:10084000883009F494C0FF91EF91BF91AF919F91CF
:100850008F917F916F915F914F913F912F910F9069
:100860000FBE0F901F901895883109F488C0803210
:1008700051F78093BE0114C0803409F49DC040F448
:100880008033B9F38833F9F68093BE0185ECB0C0AC
:10089000803509F485C0883509F496C0883499F606
:1008A0000E942303D0CF883909F48CC038F58837EB
:1008B00029F050F4883611F0803729F683E08093D0
:1008C000C0011092710157C0883809F47BC080398B
:1008D00019F0803809F0B7CF80917101803208F0AB
:1008E00071C0E091710181E08E0F80937101809160
:1008F000BB00F0E0EF5AFE4F80833DC0803B39F0F3
:10090000E0F4803A09F479C0883A09F09CCF84E099
:100910008093C0011092500110924F01E091740138
:10092000F0917501099580914F0181110FC081E00F
:1009300080934F0110922F0109C0803C09F4A6CF8B
:10094000883C09F4A3CF883B09F07DCFE0915001AA
:1009500081E08E0F80935001F0E0E15DFE4F8081D9
:100960008093BB009091500180914F0129C08091EC
:10097000BB018093BB0085EC8093BC0064CF909159
:10098000BD018091BC01981758F5E091BD0181E04F
:100990008E0F8093BD01F0E0E656FE4F8081E9CFD7
:1009A000E091BD0181E08E0F8093BD018091BB007D
:1009B000F0E0E656FE4F80839091BD018091BC012E
:1009C0009817C8F285E8D8CFE091BD0181E08E0F7D
:1009D0008093BD018091BB00F0E0E656FE4F80831E
:1009E0008091BF0181115CCF81E08093BA0184EADC
:1009F0008093BC001092C00126CF85EC8093BC0090
:100A00001092C00180917101803230F4E091710147
:100A1000F0E0EF5AFE4F10826091710170E0E091BA
:100A20007201F091730181E591E0099510927101D5
:100A30000ACF1092BE0134CFE2EFF1E013821282AE
:100A400088EE93E0A0E0B0E084839583A683B7832B
:100A500024E031E03183208325EC30E035872487A2
:100A600024EC30E03787268720EC30E0318B208B78
:100A700021EC30E0338B228B22EC30E0358B248B61
:100A800026EC30E0378B268B118E128E138E148E4F
:100A9000EFE8F2E01382128284839583A683B78302
:100AA00086E191E0918380830895789484B5826093
:100AB00084BD84B5816084BD85B5826085BD85B502
:100AC000816085BD80916E00816080936E00109280
:100AD00081008091810082608093810080918100FB
:100AE000816080938100809180008160809380008C
:100AF0008091B10084608093B1008091B0008160EA
:100B00008093B00080917A00846080937A00809115
:100B10007A00826080937A0080917A00816080936D
:100B20007A0080917A00806880937A001092C100E8
:100B30001092E6011092E7010E9462028CE291E0BD
:100B400090937501809374018DE291E0909373010D
:100B500080937201E0910202F091030282E08083AF
:100B6000E091FE01F091FF011082E0910002F0910E
:100B7000010283E3808310920A02E0910602F09161
:100B8000070286E08083E0910402F09105028081F3
:100B900080618083E0910402F09105028081886089
:100BA0008083E0910402F091050280818068808357
:100BB000E0910402F091050280818F7D808315EE23
:100BC00005EC22E0C22EDD24DA9433E0B32ED1E02E
:100BD00090E0E92E90E0F92E88E0A82ED0937601DF
:100BE000A0929801109277011092990145E050E08F
:100BF00064E271E08FE892E00E94C4026091E80133
:100C00008FE892E00E94F1029090990180E28915AC
:100C100008F48FC0C09198010E94CE002B013C01C6
:100C20008091C001811160C0C092C001D093BF010A
:100C3000D092BE011092BD019092BC01A8E7B1E034
:100C4000EAE9F1E09812EAC01092BB018091BB0181
:100C5000CC0FC82BC093BB018091BA01813009F041
:100C6000E1C01092BA010E94CE002B013C0180919C
:100C7000BB018093BB008091C2019091C301A09100
:100C8000C401B091C501892B8A2B8B2B99F00E944E
:100C9000CE002091C2013091C3014091C401509116
:100CA000C50164197509860997092617370748078A
:100CB0005907D8F18091BC0083FDD9CF0093BC00C7
:100CC0000E94CE002B013C018091C001823009F4CA
:100CD000ACC08091BE018F3F61F18091BE01803236
:100CE00041F18091BE0125C08091C2019091C30164
:100CF000A091C401B091C501892B8A2B8B2B09F4DB
:100D00008FCF0E94CE002091C2013091C30140914B
:100D1000C4015091C5016419750986099709261700
:100D200037074807590708F07BCF8091C1010E941F
:100D300080021092770110929901109276018091B1
:100D4000E8018F5F8093E8010E94CE002B013C01F7
:100D50008091C00181118BC0D093C001D093BF019D
:100D6000D092BE011092BD01B092BC01D093BB01E4
:100D70008091BB0180618093BB018091BA01813079
:100D800009F0B3C01092BA010E94CE002B013C01C1
:100D90008091BB018093BB008091C2019091C301FF
:100DA000A091C401B091C501892B8A2B8B2BA1F096
:100DB0000E94CE002091C2013091C3014091C40134
:100DC0005091C501641975098609970926173707D7
:100DD0004807590708F46CC08091BC0083FDD8CF48
:100DE0000093BC000E94CE002B013C018091C00109
:100DF000813009F47DC08091BD01C4E0843010F4DD
:100E0000C091BD01EAE9F1E0A6ECB1E080E08C1709
:100E100009F453C091919D938F5FF9CF9D91919368
:100E20008F5F10CF1093BC004BCF8091C201909187
:100E3000C301A091C401B091C501892B8A2B8B2BD2
:100E400009F442CF0E94CE002091C2013091C3012B
:100E50004091C4015091C50164197509860997092B
:100E6000261737074807590708F02ECF5ECF809125
:100E7000C2019091C301A091C401B091C501892B19
:100E80008A2B8B2B09F464CF0E94CE002091C201E3
:100E90003091C3014091C4015091C5016419750995
:100EA00086099709261737074807590708F050CFD2
:100EB0008091C1010E948002C0E01092E601C093BF
:100EC000E7018091E601C817A9F18FE892E00E943E
:100ED000B102682F82EF91E00E94CE016BE070E0DA
:100EE00080E090E00E94F300ECCF1093BC007ACF3A
:100EF0008091C2019091C301A091C401B091C5013C
:100F0000892B8A2B8B2B09F471CF0E94CE00209164
:100F1000C2013091C3014091C4015091C5016419CF
:100F2000750986099709261737074807590708F0F2
:100F30005DCFBECF42E050E06AE271E082EF91E027
:100F40000E942E0164E670E080E090E00E94F300D1
:100F5000E114F10409F442CE0E949801882309F4B7
:100F60003BCE0E94000033CEEE0FFF1F0590F491A0
:080F7000E02D0994F894FFCF75
:100F780000000000CE012E015B011B028C016A01FA
:100F88007E0100000000F102C4022003A102250135
:0E0F9800B102A2027820697320000D0A000049
:00000001FF
