:020000040000FA
:100000000C9458000C9480000C9480000C94800098
:100010000C9480000C9480000C9480000C94800060
:100020000C9480000C9480000C9480000C94800050
:100030000C9480000C9480000C9480000C94800040
:100040000C94BC030C9480000C942C040C940604B7
:100050000C9480000C9480000C9480000C94800020
:100060000C945E040C948000000000002500280021
:100070002B00040404040404040402020202020229
:10008000030303030303010204081020408001025C
:1000900004081020010204081020000000080002DB
:1000A00001000003040700000000000000007D05BF
:1000B00011241FBECFEFD8E0DEBFCDBF11E0A0E01E
:1000C000B1E0E8E5FDE002C005900D92AC32B10769
:1000D000D9F722E0ACE2B1E001C01D92AA37B20725
:1000E000E1F710E0C8E5D0E004C02197FE010E94CE
:1000F000A406C735D107C9F70E94B6050C94AA0615
:100100000C94000090E0FC01E656FF4F2491FC01A6
:10011000EA57FF4F3491FC01EE58FF4FE491EE2374
:10012000C9F0222339F0233001F1A8F4213019F16C
:10013000223029F1F0E0EE0FFF1FE859FF4FA591A3
:10014000B4918FB7F894EC91611126C030953E239D
:100150003C938FBF08952730A9F02830C9F0243090
:1001600049F7809180008F7D03C0809180008F7758
:1001700080938000DFCF84B58F7784BDDBCF84B5DB
:100180008F7DFBCF8091B0008F778093B000D2CF6E
:100190008091B0008F7DF9CF3E2BDACF3FB7F89436
:1001A0008091CD019091CE01A091CF01B091D0016D
:1001B00026B5A89B05C02F3F19F00196A11DB11DC2
:1001C0003FBFBA2FA92F982F8827BC01CD01620FFE
:1001D000711D811D911D42E0660F771F881F991FB9
:1001E0004A95D1F70895E091C401F091C501309787
:1001F00029F01092C1011092C00109940895CF9383
:10020000DF93AC01E091C601F091C7013097F1F0A6
:100210009091C3018091C2019817C0F090E0292FFE
:1002200030E02617370754F4D901A45DBE4F240FE0
:10023000351FE90128812C939F5FF1CF1092C301F4
:100240006093C201CB01DF91CF910994DF91CF91EF
:100250000895AF92BF92CF92DF92EF92FF920F93E9
:100260001F93CF93DF936C017B018B01040F151F4C
:10027000EB015E01AE18BF08C017D10759F06991B4
:10028000D601ED91FC910190F081E02DC601099518
:10029000892B79F7C501DF91CF911F910F91FF90C5
:1002A000EF90DF90CF90BF90AF900895FC01538DF9
:1002B000448D252F30E0842F90E0821B930B541740
:1002C00010F0CF96089501970895FC01918D828DCD
:1002D000981761F0A28DAE0FBF2FB11D5D968C9166
:1002E000928D9F5F9F73928F90E008958FEF9FEFA5
:1002F0000895FC01918D828D981731F0828DE80F61
:10030000F11D858D90E008958FEF9FEF0895FC011A
:10031000918D228D892F90E0805C9F4F821B9109E7
:100320008F739927089581ED91E00E94870121E064
:10033000892B09F420E0822F089580E090E0892B3A
:1003400029F00E94930181110C9400000895FC0192
:10035000A48DA80FB92FB11DA35ABF4F2C91848D26
:1003600090E001968F739927848FA689B7892C9383
:10037000A089B1898C91837080648C93938D848DD6
:10038000981306C00288F389E02D80818F7D8083D9
:100390000895EF92FF920F931F93CF93DF93EC0199
:1003A00081E0888F9B8D8C8D98131AC0E889F9891C
:1003B000808185FF15C09FB7F894EE89FF8960831F
:1003C000E889F98980818370806480839FBF81E0A0
:1003D00090E0DF91CF911F910F91FF90EF900895E2
:1003E000F62E0B8D10E00F5F1F4F0F731127E02EBD
:1003F0008C8D8E110CC00FB607FCFACFE889F989F5
:10040000808185FFF5CFCE010E94A701F1CFEB8D52
:10041000EC0FFD2FF11DE35AFF4FF0829FB7F894C8
:100420000B8FEA89FB8980818062CFCFCF93DF93E6
:10043000EC01888D8823B9F0AA89BB89E889F989FC
:100440008C9185FD03C0808186FD0DC00FB607FC31
:10045000F7CF8C9185FFF2CF808185FFEDCFCE0164
:100460000E94A701E9CFDF91CF91089520917201F9
:10047000260F3327331F21323105ECF420919601EA
:10048000FC0190E080E0243069F082E00895A091C2
:1004900072012191AC014E5A5E4FA40FB52FB11DD0
:1004A0002C930196861798F380917201680F6093E0
:1004B000720180E0089581E008951092960181E034
:1004C000809398011092970161E082E10E9482007E
:1004D00061E083E10E948200E9EBF0E080818E7FA1
:1004E000808380818D7F808388E48093B80085E459
:1004F0008093BC0008950895E091C3018091C201EA
:10050000E81730F4F0E0E45DFE4F808190E008955C
:100510008FEF9FEF08959091C3018091C2012FEF5B
:100520003FEF981748F4E92FF0E0E45DFE4F20819B
:1005300030E09F5F9093C301C90108958091C2018B
:100540009091C301891B990B0895CF93DF93CB0141
:10055000EA01642F0E943602CE01DF91CF91089507
:10056000CF93DF931F92CDB7DEB7698361E0CE01F1
:1005700001960E94360281E090E00F90DF91CF91CA
:10058000089590E080E00895FB0101900020E9F7D4
:100590003197AF01461B570BDC01ED91FC910280B6
:1005A000F381E02D099464E271E08EE692E00C9410
:1005B000C402CF93DF9385ED8093BC0080914E0100
:1005C00090914F01A0915001B09151010796A11D4A
:1005D000B11D23E0B695A795979587952A95D1F7F4
:1005E0002091BC0024FD03C01092960136C04091BA
:1005F0004E0150914F016091500170915101452B76
:10060000462B472B69F30097A105B10541F02AE27B
:100610002A95F1F700C00197A109B109E1CF8091B6
:100620004D0191E090934C018823B9F0C091B8003E
:10063000D091BA008091BC008A7B8093BC0060E0BE
:1006400082E10E94820060E083E10E9482000E94B9
:100650005D02D093BA00C093B800DF91CF910895A6
:100660008F929F92AF92BF92CF92DF92EF92FF92C2
:10067000CF93DF93CDB7DEB7A1970FB6F894DEBF67
:100680000FBECDBF8091C2019091C301891B990B10
:10069000029754F08EE692E00E948B02682F81ED63
:1006A00091E00E94C901EECF8EE692E00E948B029B
:1006B0006C01990FEE08FF08F7FE43C06DE281ED73
:1006C00091E00E94C90122273327A9012C193D0975
:1006D0004E095F0919A2CE0181967C019AE0892E0C
:1006E000912CA12CB12CCA01B901A50194010E9441
:1006F0008206605DF70162937F0121153105410596
:10070000510589F7E114F10429F0B70181ED91E079
:100710000E94C40268E271E081ED91E00E94C4028F
:10072000A1960FB6F894DEBF0FBECDBFDF91CF917B
:10073000FF90EF90DF90CF90BF90AF909F908F9001
:100740000895A701960119A2CE0181967C018AE045
:10075000882E912CA12CB12CCA01B901A5019401BC
:100760000E948206605DF70162937F0121153105C9
:100770004105510589F7C6CF1F920F920FB60F9210
:1007800011242F933F938F939F93AF93BF938091A7
:10079000C9019091CA01A091CB01B091CC013091D7
:1007A000C80123E0230F2D3758F50196A11DB11D77
:1007B0002093C8018093C9019093CA01A093CB01F3
:1007C000B093CC018091CD019091CE01A091CF0149
:1007D000B091D0010196A11DB11D8093CD019093E0
:1007E000CE01A093CF01B093D001BF91AF919F9163
:1007F0008F913F912F910F900FBE0F901F901895E2
:1008000026E8230F0296A11DB11DD2CF1F920F9291
:100810000FB60F9211242F933F934F935F936F93D3
:100820007F938F939F93AF93BF93EF93FF9381ED4C
:1008300091E00E94A701FF91EF91BF91AF919F912D
:100840008F917F916F915F914F913F912F910F9079
:100850000FBE0F901F9018951F920F920FB60F9218
:1008600011242F938F939F93EF93FF93E091E101D6
:10087000F091E2018081E091E701F091E80182FDD1
:100880001BC090818091EA018F5F8F732091EB01F3
:10089000821741F0E091EA01F0E0EF52FE4F958FB0
:1008A0008093EA01FF91EF919F918F912F910F908B
:1008B0000FBE0F901F9018958081F4CF1F920F925A
:1008C0000FB60F9211242F933F934F935F936F9323
:1008D0007F938F939F93AF93BF93EF93FF938091F9
:1008E000B900887F803609F44AC0F0F5883209F4EF
:1008F000A7C018F5803109F49BC0B8F4882309F427
:10090000F9C0883009F494C0FF91EF91BF91AF9185
:100910009F918F917F916F915F914F913F912F9117
:100920000F900FBE0F901F901895883109F488C062
:10093000803251F78093950114C0803409F49DC032
:1009400040F48033B9F38833F9F68093950185EC50
:10095000B0C0803509F485C0883509F496C0883464
:1009600099F60E94D902D0CF883909F48CC038F5A5
:10097000883729F050F4883611F0803729F683E063
:10098000809396011092940157C0883809F47BC077
:10099000803919F0803809F0B7CF80919401803206
:1009A00008F071C0E091940181E08E0F8093940172
:1009B0008091BB00F0E0EC58FE4F80833DC0803B4F
:1009C00039F0E0F4803A09F479C0883A09F09CCF14
:1009D00084E0809396011092730110927201E0916D
:1009E000BE01F091BF0109958091720181110FC084
:1009F00081E0809372011092520109C0803C09F499
:100A0000A6CF883C09F4A3CF883B09F07DCFE091C5
:100A1000730181E08E0F80937301F0E0EE5AFE4F78
:100A200080818093BB00909173018091720129C0F5
:100A30008091BB018093BB0085EC8093BC0064CFA8
:100A40009091BA018091B901981758F5E091BA01D7
:100A500081E08E0F8093BA01F0E0E756FE4F80816F
:100A6000E9CFE091BA0181E08E0F8093BA018091C5
:100A7000BB00F0E0E756FE4F80839091BA01809171
:100A8000B9019817C8F285E8D8CFE091BA0181E0A2
:100A90008E0F8093BA018091BB00F0E0E756FE4FC5
:100AA00080838091980181115CCF81E080939701D0
:100AB00084EA8093BC001092960126CF85EC809347
:100AC000BC001092960180919401803230F4E09144
:100AD0009401F0E0EC58FE4F10826091940170E0B8
:100AE000E091BC01F091BD0184E791E0099510927D
:100AF00094010ACF1092950134CFE1EDF1E0138219
:100B0000128288EE93E0A0E0B0E084839583A68310
:100B1000B78324E031E03183208325EC30E0358752
:100B2000248724EC30E03787268720EC30E0318BB7
:100B3000208B21EC30E0338B228B22EC30E0358BA4
:100B4000248B26EC30E0378B268B118E128E138E81
:100B5000148EEEE6F2E01382128284839583A683DC
:100B6000B78386E191E0918380830895789484B57A
:100B7000826084BD84B5816084BD85B5826085BD99
:100B800085B5816085BD80916E00816080936E0027
:100B90001092810080918100826080938100809119
:100BA00081008160809381008091800081608093CA
:100BB00080008091B10084608093B1008091B0008A
:100BC00081608093B00080917A00846080937A0085
:100BD00080917A00826080937A0080917A008160AF
:100BE00080937A0080917A00806880937A001092D6
:100BF000C1001092C3011092C2011092C101109263
:100C0000C0010E945D0283EF90E09093BF0180934A
:100C1000BE018FEF90E09093BD018093BC0180E115
:100C20008093BA0083ED92E09093C5018093C40154
:100C300080E393E09093C7018093C601E091E101C6
:100C4000F091E20182E08083E091DD01F091DE012C
:100C50001082E091DF01F091E00183E38083109244
:100C6000E901E091E501F091E60186E08083E09101
:100C7000E301F091E401808180618083E091E301F0
:100C8000F091E401808188608083E091E301F0913C
:100C9000E401808180688083E091E301F091E401C8
:100CA00080818F7D8083C0E0D0E00E94CE004B0128
:100CB0005C0184E6C82ED12CE12CF12C0E94CE00E0
:100CC000681979098A099B09683E73408105910575
:100CD000A8F321E0C21AD108E108F10888EE880ED5
:100CE00083E0981EA11CB11CC114D104E104F104DD
:100CF00029F72097D1F20E9493018823B1F20E9434
:100D00000000D3CFA1E21A2EAA1BBB1BFD010DC010
:100D1000AA1FBB1FEE1FFF1FA217B307E407F507AB
:100D200020F0A21BB30BE40BF50B661F771F881F87
:100D3000991F1A9469F760957095809590959B011D
:100D4000AC01BD01CF010895EE0FFF1F0590F49196
:100D5000E02D0994F894FFCF00000000C90129019B
:100D60005601160287016501790100000000B002FA
:100D7000A502C1027B029E028B027C02686F6C009E
:040D80000D0A000058
:107E0000112484B714BE81FFF0D085E080938100F7
:107E100082E08093C00088E18093C10086E0809377
:107E2000C20080E18093C4008EE0C9D0259A86E02C
:107E300020E33CEF91E0309385002093840096BBD3
:107E4000B09BFECF1D9AA8958150A9F7CC24DD24C4
:107E500088248394B5E0AB2EA1E19A2EF3E0BF2EE7
:107E6000A2D0813461F49FD0082FAFD0023811F036
:107E7000013811F484E001C083E08DD089C08234E0
:107E800011F484E103C0853419F485E0A6D080C0E4
:107E9000853579F488D0E82EFF2485D0082F10E0AE
:107EA000102F00270E291F29000F111F8ED06801E7
:107EB0006FC0863521F484E090D080E0DECF843638
:107EC00009F040C070D06FD0082F6DD080E0C81688
:107ED00080E7D80618F4F601B7BEE895C0E0D1E017
:107EE00062D089930C17E1F7F0E0CF16F0E7DF06D8
:107EF00018F0F601B7BEE89568D007B600FCFDCFD4
:107F0000A601A0E0B1E02C9130E011968C91119780
:107F100090E0982F8827822B932B1296FA010C0160
:107F200087BEE89511244E5F5F4FF1E0A038BF0790
:107F300051F7F601A7BEE89507B600FCFDCF97BE46
:107F4000E89526C08437B1F42ED02DD0F82E2BD052
:107F50003CD0F601EF2C8F010F5F1F4F84911BD097
:107F6000EA94F801C1F70894C11CD11CFA94CF0C13
:107F7000D11C0EC0853739F428D08EE10CD085E9AC
:107F80000AD08FE07ACF813511F488E018D01DD067
:107F900080E101D065CF982F8091C00085FFFCCF94
:107FA0009093C60008958091C00087FFFCCF809118
:107FB000C00084FD01C0A8958091C6000895E0E648
:107FC000F0E098E1908380830895EDDF803219F02E
:107FD00088E0F5DFFFCF84E1DECF1F93182FE3DFCA
:107FE0001150E9F7F2DF1F91089580E0E8DFEE27F6
:047FF000FF270994CA
:027FFE00040479
:00000001FF
