:020000040000FA
:100000000C9462000C948A000C948A000C948A0070
:100010000C948A000C948A000C948A000C948A0038
:100020000C948A000C948A000C948A000C948A0028
:100030000C948A000C948A000C948A000C948A0018
:100040000C94C0020C948A000C9430030C940A03A4
:100050000C948A000C948A000C948A000C948A00F8
:100060000C948A000C948A000000000024002700F1
:100070002A0000000000250028002B0000000000DE
:1000800023002600290004040404040404040202DA
:100090000202020203030303030301020408102007
:1000A0004080010204081020010204081020000012
:1000B0000008000201000003040700000000000027
:1000C0000000620311241FBECFEFD8E0DEBFCDBF1A
:1000D00011E0A0E0B1E0E2E1FFE002C005900D9286
:1000E000A033B107D9F721E0A0E3B1E001C01D9230
:1000F000A13EB207E1F710E0C2E6D0E004C02197CC
:10010000FE010E948107C136D107C9F70E94AA03E8
:100110000C9487070C940000833081F028F4813020
:1001200099F08230A9F008958730A9F08830C9F09D
:100130008430B1F4809180008F7D03C08091800075
:100140008F7780938000089584B58F7784BD08955C
:1001500084B58F7DFBCF8091B0008F778093B00006
:1001600008958091B0008F7DF9CFCF93DF93282F32
:1001700030E0F901E255FF4F8491F901E656FF4F57
:10018000D491F901EA57FF4FC491CC23A1F081111A
:100190000E948C00EC2FF0E0EE0FFF1FE458FF4FA1
:1001A000A591B491EC91ED2381E090E009F480E019
:1001B000DF91CF91089580E090E0FACF1F93CF9325
:1001C000DF93282F30E0F901E255FF4F8491F901C8
:1001D000E656FF4FD491F901EA57FF4FC491CC2363
:1001E000A9F0162F81110E948C00EC2FF0E0EE0F89
:1001F000FF1FEE58FF4FA591B4918FB7F894EC9183
:10020000111108C0D095DE23DC938FBFDF91CF9111
:100210001F910895DE2BF8CFCF93DF9390E0FC0180
:10022000E656FF4F24918A579F4FFC018491882303
:10023000D1F090E0880F991FFC01E859FF4FA5917C
:10024000B491FC01EE58FF4FC591D49161110EC0DD
:100250009FB7F8948C91E22FE0958E238C932881A0
:10026000E223E8839FBFDF91CF9108958FB7F89481
:10027000EC91E22BEC938FBFF6CF3FB7F8948091CF
:10028000350190913601A0913701B091380126B522
:10029000A89B05C02F3F19F00196A11DB11D3FBFBE
:1002A000BA2FA92F982F8827BC01CD01620F711D8D
:1002B000811D911D42E0660F771F881F991F4A9587
:1002C000D1F70895AF92BF92CF92DF92EF92FF9253
:1002D0000F931F93CF93DF936C017B018B01040F6E
:1002E000151FEB015E01AE18BF08C017D10759F00A
:1002F0006991D601ED91FC910190F081E02DC6014C
:100300000995892B79F7C501DF91CF911F910F9145
:10031000FF90EF90DF90CF90BF90AF900895FC01D9
:10032000538D448D252F30E0842F90E0821B930B5A
:10033000541710F0CF96089501970895FC01918D00
:10034000828D981761F0A28DAE0FBF2FB11D5D9603
:100350008C91928D9F5F9F73928F90E008958FEFA5
:100360009FEF0895FC01918D828D981731F0828D59
:10037000E80FF11D858D90E008958FEF9FEF0895B0
:10038000FC01918D228D892F90E0805C9F4F821B14
:1003900091098F739927089589E391E00E94C00124
:1003A00021E0892B09F420E0822F089580E090E07D
:1003B000892B29F00E94CC0181110C940000089532
:1003C000FC01A48DA80FB92FB11DA35ABF4F2C91CA
:1003D000848D90E001968F739927848FA689B789C1
:1003E0002C93A089B1898C91837080648C93938DB8
:1003F000848D981306C00288F389E02D80818F7D5B
:1004000080830895EF92FF920F931F93CF93DF9312
:10041000EC0181E0888F9B8D8C8D98131AC0E88940
:10042000F989808185FF15C09FB7F894EE89FF890F
:100430006083E889F98980818370806480839FBFAD
:1004400081E090E0DF91CF911F910F91FF90EF90AD
:100450000895F62E0B8D10E00F5F1F4F0F731127BD
:10046000E02E8C8D8E110CC00FB607FCFACFE889F8
:10047000F989808185FFF5CFCE010E94E001F1CF9F
:10048000EB8DEC0FFD2FF11DE35AFF4FF0829FB76C
:10049000F8940B8FEA89FB8980818062CFCFCF935C
:1004A000DF93EC01888D8823B9F0AA89BB89E8899C
:1004B000F9898C9185FD03C0808186FD0DC00FB642
:1004C00007FCF7CF8C9185FFF2CF808185FFEDCFC0
:1004D000CE010E94E001E9CFDF91CF910895FC01A8
:1004E00001900020E9F73197AF01481B590BBC017F
:1004F00089E391E00C9462018F929F92AF92BF9238
:100500000F931F93CF93DF93CDB7DEB7A1970FB6AD
:10051000F894DEBF0FBECDBF19A2423008F44AE006
:100520008E010F5D1F4F842E912CB12CA12CA501A3
:1005300094010E945F07E62FB901CA01EA30F4F482
:10054000E05DD801EE938D01232B242B252B79F729
:1005500090E080E0109719F0CD010E946F02A19603
:100560000FB6F894DEBF0FBECDBFDF91CF911F91C4
:100570000F91BF90AF909F908F900895E95CE1CF6D
:100580001F920F920FB60F9211242F933F938F93C8
:100590009F93AF93BF938091310190913201A091CD
:1005A0003301B09134013091300123E0230F2D3716
:1005B00058F50196A11DB11D2093300180933101A2
:1005C00090933201A0933301B093340180913501AF
:1005D00090913601A0913701B09138010196A11D8B
:1005E000B11D8093350190933601A0933701B093EC
:1005F0003801BF91AF919F918F913F912F910F90B3
:100600000FBE0F901F90189526E8230F0296A11D8C
:10061000B11DD2CF1F920F920FB60F9211242F93BC
:100620003F934F935F936F937F938F939F93AF937A
:10063000BF93EF93FF9389E391E00E94E001FF9164
:10064000EF91BF91AF919F918F917F916F915F914A
:100650004F913F912F910F900FBE0F901F901895C3
:100660001F920F920FB60F9211242F938F939F9387
:10067000EF93FF93E0914901F0914A018081E0916D
:100680004F01F091500182FD1BC090818091520179
:100690008F5F8F7320915301821741F0E0915201D7
:1006A000F0E0E75CFE4F958F80935201FF91EF9150
:1006B0009F918F912F910F900FBE0F901F901895C3
:1006C0008081F4CFCF93DF93E9E3F1E013821282CC
:1006D00088EE93E0A0E0B0E084839583A683B7839F
:1006E00084E091E09183808385EC90E09587848716
:1006F00084EC90E09787868780EC90E0918B808BEC
:1007000081EC90E0938B828B82EC90E0958B848BD4
:1007100086EC90E0978B868B118E128E138E148E42
:10072000C6EDD1E089E088838AE089831A8261E09E
:1007300089E00E940C0160E089810E940C0180E246
:100740009EE4A0E0B0E08F839887A987BA87DF9105
:10075000CF910895789484B5826084BD84B581601A
:1007600084BD85B5826085BD85B5816085BD80917C
:100770006E00816080936E001092810080918100F4
:1007800082608093810080918100816080938100EC
:10079000809180008160809380008091B1008460AE
:1007A0008093B1008091B00081608093B00080910F
:1007B0007A00846080937A0080917A0082608093CE
:1007C0007A0080917A00816080937A0080917A002B
:1007D000806880937A001092C100E0914901F09105
:1007E0004A0182E08083E0914501F0914601108248
:1007F000E0914701F09148018FEC80831092510104
:10080000E0914D01F0914E0186E08083E0914B0133
:10081000F0914C01808180618083E0914B01F091E7
:100820004C01808188608083E0914B01F0914C0104
:10083000808180688083E0914B01F0914C01808140
:100840008F7D808393E0892E912CC3E2D0E008E372
:1008500010E020E0A22E20E0B22E8091D801882363
:1008600029F061E08091D6010E940C0160E0809146
:10087000D6010E94DE00C4010197F1F761E080918A
:10088000D6010E94DE00CE010197F1F760E0809171
:10089000D6010E94DE008091D801882329F060E013
:1008A0008091D6010E940C010E943D016093D90104
:1008B0007093DA018093DB019093DC018091D70182
:1008C0000E94B500892BD9F40E943D01C090D90146
:1008D000D090DA01E090DB01F090DC016C197D0929
:1008E0008E099F09C090DD01D090DE01E090DF010C
:1008F000F090E001C616D706E806F906F8F60E9461
:100900003D016093D9017093DA018093DB019093EC
:10091000DC018091D7010E94B500892BD9F00E949B
:100920003D01C090D901D090DA01E090DB01F09058
:10093000DC016C197D098E099F09C090DD01D09002
:10094000DE01E090DF01F090E001C616D706E80670
:10095000F906F8F60E943D012091D9013091DA01A3
:10096000CB01821B930BB8010E944B0790E080E003
:100970000E9422066B017C0182E191E00E946F02DD
:10098000A7019601C701B6010E9446078823E9F135
:100990008DE191E00E946F0289E291E00E946F0276
:1009A0008DE291E00E946F020E943D012B013C010B
:1009B00084EFC82EDD24D394E12CF12C0E943D015C
:1009C0006419750986099709683E73408105910588
:1009D000A8F321E0C21AD108E108F10888EE480E18
:1009E00083E0581E611C711CC114D104E104F104A0
:1009F00029F7A114B10409F430CF0E94CC01882357
:100A000009F42BCF0E94000028CF2FEF3FEF4FE7D4
:100A10005FE7C701B6010E94460781110DC02FEFA5
:100A20003FEF4FE75FE7C701B6010E94EE051816DA
:100A30001CF481E291E0AECF2FEF3FEF4FE75FE490
:100A4000C701B6010E94D40618161CF485E291E095
:100A5000A1CF2FEF3FEF4FE75FECC701B6010E9438
:100A6000EE0587FDF3CF2AE037ED43EA5BE3C701EC
:100A7000B6010E9482052B013C010E94F3056B0127
:100A80007C010E9422069B01AC01C301B2010E94BD
:100A900081052B013C014AE0C701B6010E947C029E
:100AA0006EE289E391E00E94020220E030E040E241
:100AB00051E4C301B2010E94D9062B013C010E94FE
:100AC000F3056B01F12CE12C4AE0C701B6010E944D
:100AD0007C02C701B6010E9422069B01AC01C30142
:100AE000B2010E94810520E030E040E251E40E9422
:100AF000D9060E94F30590E080E04AE00E947C0263
:100B00004BCF5058BB27AA270E9499050C949A06F0
:100B10000E948C0638F00E94930620F039F49F3F23
:100B200019F426F40C9489060EF4E095E7FB0C9476
:100B30008306E92F0E94AB0658F3BA1762077307C2
:100B40008407950720F079F4A6F50C94CD060EF4F1
:100B5000E0950B2EBA2FA02D0B01B90190010C01CD
:100B6000CA01A0011124FF27591B99F0593F50F4E5
:100B7000503E68F11A16F040A22F232F342F44273D
:100B8000585FF3CF469537952795A795F040539535
:100B9000C9F77EF41F16BA0B620B730B840BBAF005
:100BA0009150A1F0FF0FBB1F661F771F881FC2F770
:100BB0000EC0BA0F621F731F841F48F48795779584
:100BC0006795B795F7959E3F08F0B0CF9395880F3E
:100BD00008F09927EE0F9795879508950E945F0674
:100BE00008F481E008950E94B30688F09F5798F0BA
:100BF000B92F9927B751B0F0E1F0660F771F881F22
:100C0000991F1AF0BA95C9F714C0B13091F00E943B
:100C1000CD06B1E008950C94CD06672F782F882774
:100C2000B85F39F0B93FCCF3869577956795B39562
:100C3000D9F73EF490958095709561957F4F8F4FD1
:100C40009F4F0895E89409C097FB3EF490958095D6
:100C5000709561957F4F8F4F9F4F9923A9F0F92F82
:100C600096E9BB279395F695879577956795B79500
:100C7000F111F8CFFAF4BB0F11F460FF1BC06F5FE6
:100C80007F4F8F4F9F4F16C0882311F096E911C0F8
:100C9000772321F09EE8872F762F05C0662371F019
:100CA00096E8862F70E060E02AF09A95660F771F2D
:100CB000881FDAF7880F9695879597F90895990F09
:100CC0000008550FAA0BE0E8FEEF16161706E80716
:100CD000F907C0F012161306E407F50798F0621B37
:100CE000730B840B950B39F40A2661F0232B242B0C
:100CF000252B21F408950A2609F4A140A6958FEF2B
:100D0000811D811D089597F99F6780E870E060E07C
:100D100008959FEF80EC089500240A941616170694
:100D200018060906089500240A94121613061406DC
:100D300005060895092E0394000C11F4882352F03F
:100D4000BB0F40F4BF2B11F460FF04C06F5F7F4FF7
:100D50008F4F9F4F089557FD9058440F551F59F0DE
:100D60005F3F71F04795880F97FB991F61F09F3F98
:100D700079F087950895121613061406551FF2CFC1
:100D80004695F1DF08C0161617061806991FF1CF11
:100D900086957105610508940895E894BB27662738
:100DA0007727CB0197F908950E945F0608F48FEF2B
:100DB00008950E94EC060C949A060E948C0638F066
:100DC0000E94930620F0952311F00C9483060C9456
:100DD000890611240C94CE060E94AB0670F3959FF1
:100DE000C1F3950F50E0551F629FF001729FBB2722
:100DF000F00DB11D639FAA27F00DB11DAA1F649FBE
:100E00006627B00DA11D661F829F2227B00DA11D70
:100E1000621F739FB00DA11D621F839FA00D611DF6
:100E2000221F749F3327A00D611D231F849F600D17
:100E3000211D822F762F6A2F11249F5750409AF040
:100E4000F1F088234AF0EE0FFF1FBB1F661F771FCC
:100E5000881F91505040A9F79E3F510580F00C9497
:100E600083060C94CE065F3FE4F3983ED4F3869558
:100E700077956795B795F795E7959F5FC1F7FE2B37
:100E8000880F911D9695879597F908950E945F06A2
:100E9000880B990B0895AA1BBB1B51E107C0AA1F21
:100EA000BB1FA617B70710F0A61BB70B881F991F0B
:100EB0005A95A9F780959095BC01CD010895A1E2BE
:100EC0001A2EAA1BBB1BFD010DC0AA1FBB1FEE1FC4
:100ED000FF1FA217B307E407F50720F0A21BB30B0F
:100EE000E40BF50B661F771F881F991F1A9469F78B
:100EF00060957095809590959B01AC01BD01CF01E7
:100F00000895EE0FFF1F0590F491E02D0994F894D9
:100F1000FFCF00000000020262018F014F02C001FA
:100F20009E01B20144697374616E63653A20006E7C
:100F3000616E00696E66006F76660020636D000D5D
:020F40000A00A5
:107E0000112484B714BE81FFF0D085E080938100F7
:107E100082E08093C00088E18093C10086E0809377
:107E2000C20080E18093C4008EE0C9D0259A86E02C
:107E300020E33CEF91E0309385002093840096BBD3
:107E4000B09BFECF1D9AA8958150A9F7CC24DD24C4
:107E500088248394B5E0AB2EA1E19A2EF3E0BF2EE7
:107E6000A2D0813461F49FD0082FAFD0023811F036
:107E7000013811F484E001C083E08DD089C08234E0
:107E800011F484E103C0853419F485E0A6D080C0E4
:107E9000853579F488D0E82EFF2485D0082F10E0AE
:107EA000102F00270E291F29000F111F8ED06801E7
:107EB0006FC0863521F484E090D080E0DECF843638
:107EC00009F040C070D06FD0082F6DD080E0C81688
:107ED00080E7D80618F4F601B7BEE895C0E0D1E017
:107EE00062D089930C17E1F7F0E0CF16F0E7DF06D8
:107EF00018F0F601B7BEE89568D007B600FCFDCFD4
:107F0000A601A0E0B1E02C9130E011968C91119780
:107F100090E0982F8827822B932B1296FA010C0160
:107F200087BEE89511244E5F5F4FF1E0A038BF0790
:107F300051F7F601A7BEE89507B600FCFDCF97BE46
:107F4000E89526C08437B1F42ED02DD0F82E2BD052
:107F50003CD0F601EF2C8F010F5F1F4F84911BD097
:107F6000EA94F801C1F70894C11CD11CFA94CF0C13
:107F7000D11C0EC0853739F428D08EE10CD085E9AC
:107F80000AD08FE07ACF813511F488E018D01DD067
:107F900080E101D065CF982F8091C00085FFFCCF94
:107FA0009093C60008958091C00087FFFCCF809118
:107FB000C00084FD01C0A8958091C6000895E0E648
:107FC000F0E098E1908380830895EDDF803219F02E
:107FD00088E0F5DFFFCF84E1DECF1F93182FE3DFCA
:107FE0001150E9F7F2DF1F91089580E0E8DFEE27F6
:047FF000FF270994CA
:027FFE00040479
:00000001FF
