:020000040000FA
:100000000C945C000C9479000C9479000C947900A9
:100010000C9479000C9479000C9479000C9479007C
:100020000C9479000C9479000C9479000C9479006C
:100030000C9479000C94BC010C9479000C94790018
:100040000C9472010C9479000C9479000C94790052
:100050000C9479000C9479000C9479000C9479003C
:100060000C9479000C947900000000080002010053
:100070000003040700000000000000000000000072
:10008000250028002B0000000000240027002A0083
:10009000040404040404040402020202020203032E
:1000A0000303030301020408102040800102040836
:1000B000102001020408102011241FBECFEFD8E049
:1000C000DEBFCDBF11E0A0E0B1E0EEEFF4E002C092
:1000D00005900D92A430B107D9F721E0A4E0B1E07A
:1000E00001C01D92A131B207E1F70E94E3010C9417
:1000F0007D020C94000090E0FC01EC55FF4F249130
:1001000080579F4FFC018491882399F090E0880FDD
:10011000991FFC01EA57FF4FA591B491FC01E458E7
:10012000FF4F859194918FB7F894EC91E22BEC936B
:100130008FBF089590E0FC01E859FF4F2491FC0126
:10014000EC55FF4F3491FC01E057FF4FE491EE2353
:10015000C9F0222339F0233001F1A8F4213019F13C
:10016000223029F1F0E0EE0FFF1FE458FF4FA59178
:10017000B4918FB7F894EC91611126C030953E236D
:100180003C938FBF08952730A9F02830C9F0243060
:1001900049F7809180008F7D03C0809180008F7728
:1001A00080938000DFCF84B58F7784BDDBCF84B5AB
:1001B0008F7DFBCF8091B0008F778093B000D2CF3E
:1001C0008091B0008F7DF9CF3E2BDACF08959091CA
:1001D000000181E0982790930001209106012827D3
:1001E000209306019923E9F190E190938100109208
:1001F00080008093070180E49CE9909387008093BE
:10020000860081E180938100109281001092850028
:100210001092840080910701806180938100609139
:10022000000189E00E949A008091040190910501EB
:10023000019664E070E00E9455029093050180935E
:10024000040180910401909105018130910581F1B3
:1002500094F4892B19F160E08DE00E949A0060E02F
:1002600022C090E19093810010928000809307015A
:1002700080E09DE7C2CF8230910551F1039759F795
:1002800060E08DE00E949A0061E08CE00E949A009C
:1002900061E08AE00E949A0060E017C061E08DE0B2
:1002A0000E949A0061E08CE00E949A0060E0F1CF29
:1002B00061E08DE00E949A0060E08CE00E949A006C
:1002C00060E08AE00E949A0061E08BE00C949A0062
:1002D00060E08DE00E949A0060E08CE00E949A004D
:1002E00061E0EFCF1F920F920FB60F9211242F9360
:1002F0003F938F939F93AF93BF9380910D01909104
:100300000E01A0910F01B091100130910C0123E07A
:10031000230F2D3758F50196A11DB11D20930C0117
:1003200080930D0190930E01A0930F01B0931001E3
:100330008091080190910901A0910A01B0910B01EF
:100340000196A11DB11D8093080190930901A0930E
:100350000A01B0930B01BF91AF919F918F913F9193
:100360002F910F900FBE0F901F90189526E8230F26
:100370000296A11DB11DD2CF1F920F920FB60F9200
:1003800011242F933F934F935F936F937F938F939A
:100390009F93AF93BF93EF93FF93E0910101F0918F
:1003A00002010995FF91EF91BF91AF919F918F91BC
:1003B0007F916F915F914F913F912F910F900FBE61
:1003C0000F901F901895789484B5826084BD84B591
:1003D000816084BD85B5826085BD85B5816085BD40
:1003E00080916E00816080936E00109281008091F8
:1003F0008100826080938100809181008160809380
:100400008100809180008160809380008091B100A4
:1004100084608093B1008091B00081608093B000CF
:1004200080917A00846080937A0080917A00826063
:1004300080937A0080917A00816080937A00809125
:100440007A00806880937A001092C1008DE00E944B
:100450007B008CE00E947B008BE00E947B008AE0A6
:100460000E947B0089E00E947B0080E180938100F4
:100470001092800081E08093070120E43CE93093F2
:1004800087002093860091E19093810027EE30E071
:10049000309302012093010180936F00C0E0D0E00F
:1004A0002097F1F30E940000FBCF97FB072E16F474
:1004B000009407D077FD09D00E94690207FC05D09F
:1004C0003EF4909581959F4F0895709561957F4F6B
:1004D0000895AA1BBB1B51E107C0AA1FBB1FA6178B
:1004E000B70710F0A61BB70B881F991F5A95A9F7DD
:1004F00080959095BC01CD010895F894FFCF01E659
:020500000000F9
:107E0000112484B714BE81FFF0D085E080938100F7
:107E100082E08093C00088E18093C10086E0809377
:107E2000C20080E18093C4008EE0C9D0259A86E02C
:107E300020E33CEF91E0309385002093840096BBD3
:107E4000B09BFECF1D9AA8958150A9F7CC24DD24C4
:107E500088248394B5E0AB2EA1E19A2EF3E0BF2EE7
:107E6000A2D0813461F49FD0082FAFD0023811F036
:107E7000013811F484E001C083E08DD089C08234E0
:107E800011F484E103C0853419F485E0A6D080C0E4
:107E9000853579F488D0E82EFF2485D0082F10E0AE
:107EA000102F00270E291F29000F111F8ED06801E7
:107EB0006FC0863521F484E090D080E0DECF843638
:107EC00009F040C070D06FD0082F6DD080E0C81688
:107ED00080E7D80618F4F601B7BEE895C0E0D1E017
:107EE00062D089930C17E1F7F0E0CF16F0E7DF06D8
:107EF00018F0F601B7BEE89568D007B600FCFDCFD4
:107F0000A601A0E0B1E02C9130E011968C91119780
:107F100090E0982F8827822B932B1296FA010C0160
:107F200087BEE89511244E5F5F4FF1E0A038BF0790
:107F300051F7F601A7BEE89507B600FCFDCF97BE46
:107F4000E89526C08437B1F42ED02DD0F82E2BD052
:107F50003CD0F601EF2C8F010F5F1F4F84911BD097
:107F6000EA94F801C1F70894C11CD11CFA94CF0C13
:107F7000D11C0EC0853739F428D08EE10CD085E9AC
:107F80000AD08FE07ACF813511F488E018D01DD067
:107F900080E101D065CF982F8091C00085FFFCCF94
:107FA0009093C60008958091C00087FFFCCF809118
:107FB000C00084FD01C0A8958091C6000895E0E648
:107FC000F0E098E1908380830895EDDF803219F02E
:107FD00088E0F5DFFFCF84E1DECF1F93182FE3DFCA
:107FE0001150E9F7F2DF1F91089580E0E8DFEE27F6
:047FF000FF270994CA
:027FFE00040479
:00000001FF
