:020000040000FA
:100000000C945C000C9479000C9479000C947900A9
:100010000C9479000C9479000C9479000C9479007C
:100020000C9479000C9479000C9479000C9479006C
:100030000C9479000C94A1010C9479000C94790033
:100040000C9457010C9479000C9479000C9479006D
:100050000C9479000C9479000C9479000C9479003C
:100060000C9479000C947900000000002400270013
:100070002A0000000000250028002B0004040404CE
:100080000404040402020202020203030303030342
:10009000010204081020408001020408102001021F
:1000A00004081020000000080002010000030407FB
:1000B000000000000000000011241FBECFEFD8E0B8
:1000C000DEBFCDBF15E0A0E0B1E0E2E9F8E002C09C
:1000D00005900D92A23BB107D9F725E0A2EBB5E060
:1000E00001C01D92AE3BB207E1F70E94C8010C941B
:1000F00047040C940000E1EBF0E02491EDE9F0E01E
:100100009491E9E8F0E0E491EE23C9F0222339F07C
:10011000233001F1A8F4213019F1223029F1F0E067
:10012000EE0FFF1FEE58FF4FA591B4912FB7F89433
:10013000EC91811126C090959E239C932FBF08952A
:100140002730A9F02830C9F0243049F720918000E9
:100150002F7D03C0209180002F7720938000DFCF78
:1001600024B52F7724BDDBCF24B52F7DFBCF209185
:10017000B0002F772093B000D2CF2091B0002F7D18
:10018000F9CF9E2BDACF08954F925F926F927F92B4
:100190008F929F92AF92BF92CF92DF92EF92FF9297
:1001A0000F931F93CF93DF9380E480937C00809123
:1001B0007A00806480937A0080917A0086FDFCCF7B
:1001C0006091780070917900072E000C880B990BD4
:1001D0000E942A0320E030EC4FE754E40E94B6026C
:1001E0006B017C01C091B305D091B4058E01000F65
:1001F000111FF801EE5FFE4F60817181072E000C28
:10020000880B990B0E942A034B015C01F801E65A06
:10021000FC4F60817181072E000C880B990B0E94A6
:100220002A03A70196010E94DA032B013C01A701D2
:10023000960160E070E080E89FE30E94440220E0C5
:1002400030E040E053E40E94DA039B01AC01C301BB
:10025000B2010E9445029B01AC01C501B4010E949C
:10026000B10287FF1DC081E00E947B002196CD3244
:1002700081E0D807BCF4D093B405C093B305DF91F7
:10028000CF911F910F91FF90EF90DF90CF90BF9093
:10029000AF909F908F907F906F905F904F90089558
:1002A00080E0E2CF1092B4051092B305E8CF1F9220
:1002B0000F920FB60F9211242F933F938F939F931A
:1002C000AF93BF938091BA059091BB05A091BC05F7
:1002D000B091BD053091B90523E0230F2D3758F5B6
:1002E0000196A11DB11D2093B9058093BA05909385
:1002F000BB05A093BC05B093BD058091B505909159
:10030000B605A091B705B091B8050196A11DB11D24
:100310008093B5059093B605A093B705B093B80543
:10032000BF91AF919F918F913F912F910F900FBEF1
:100330000F901F90189526E8230F0296A11DB11D5E
:10034000D2CF1F920F920FB60F9211242F933F938B
:100350004F935F936F937F938F939F93AF93BF93CD
:10036000EF93FF93E0910001F09101010995FF9156
:10037000EF91BF91AF919F918F917F916F915F911D
:100380004F913F912F910F900FBE0F901F90189596
:10039000789484B5826084BD84B5816084BD85B560
:1003A000826085BD85B5816085BD80916E0081606C
:1003B00080936E0010928100809181008260809312
:1003C0008100809181008160809381008091800014
:1003D0008160809380008091B10084608093B1003F
:1003E0008091B00081608093B00080917A00846039
:1003F00080937A0080917A00826080937A00809165
:100400007A00816080937A0080917A00806880937E
:100410007A001092C100EDE9F0E02491E9E8F0E003
:100420008491882399F090E0880F991FFC01E85986
:10043000FF4FA591B491FC01EE58FF4F8591949127
:100440008FB7F894EC91E22BEC938FBF80E180930F
:1004500081001092800080E49FE190938700809358
:10046000860081E18093810084EC90E0909301010B
:100470008093000181E080936F00C0E0D0E020977E
:10048000F1F30E940000FBCF5058BB27AA270E941F
:100490005C020C94A0030E94920338F00E9499031E
:1004A00020F039F49F3F19F426F40C948F030EF4D6
:1004B000E095E7FB0C948903E92F0E94B10358F300
:1004C000BA17620773078407950720F079F4A6F539
:1004D0000C94D3030EF4E0950B2EBA2FA02D0B0134
:1004E000B90190010C01CA01A0011124FF27591B79
:1004F00099F0593F50F4503E68F11A16F040A22F7F
:10050000232F342F4427585FF3CF469537952795EF
:10051000A795F0405395C9F77EF41F16BA0B620BEE
:10052000730B840BBAF09150A1F0FF0FBB1F661F35
:10053000771F881FC2F70EC0BA0F621F731F841F78
:1005400048F4879577956795B795F7959E3F08F09E
:10055000B0CF9395880F08F09927EE0F9795879560
:1005600008950E94650308F481E008950E94CA027C
:100570000C94A0030E94990358F00E94920340F04B
:1005800029F45F3F29F00C94890351110C94D40392
:100590000C948F030E94B10368F39923B1F35523A0
:1005A00091F3951B550BBB27AA2762177307840786
:1005B00038F09F5F5F4F220F331F441FAA1FA9F31C
:1005C00035D00E2E3AF0E0E832D091505040E6950A
:1005D000001CCAF72BD0FE2F29D0660F771F881F6B
:1005E000BB1F261737074807AB07B0E809F0BB0B5E
:1005F000802DBF01FF2793585F4F3AF09E3F510572
:1006000078F00C9489030C94D4035F3FE4F3983E94
:10061000D4F3869577956795B795F7959F5FC9F75A
:10062000880F911D9695879597F90895E1E0660FDB
:10063000771F881FBB1F621773078407BA0720F054
:10064000621B730B840BBA0BEE1F88F7E0950895BD
:10065000E89409C097FB3EF490958095709561955C
:100660007F4F8F4F9F4F9923A9F0F92F96E9BB2712
:100670009395F695879577956795B795F111F8CF8E
:10068000FAF4BB0F11F460FF1BC06F5F7F4F8F4FF9
:100690009F4F16C0882311F096E911C0772321F0EF
:1006A0009EE8872F762F05C0662371F096E8862F87
:1006B00070E060E02AF09A95660F771F881FDAF7DE
:1006C000880F9695879597F90895990F0008550F0B
:1006D000AA0BE0E8FEEF16161706E807F907C0F0C8
:1006E00012161306E407F50798F0621B730B840BD0
:1006F000950B39F40A2661F0232B242B252B21F4AA
:1007000008950A2609F4A140A6958FEF811D811D49
:10071000089597F99F6780E870E060E008959FEF83
:1007200080EC089500240A94161617061806090688
:10073000089500240A941216130614060506089557
:10074000092E0394000C11F4882352F0BB0F40F4DF
:10075000BF2B11F460FF04C06F5F7F4F8F4F9F4F1F
:10076000089557FD9058440F551F59F05F3F71F0A1
:100770004795880F97FB991F61F09F3F79F0879508
:100780000895121613061406551FF2CF4695F1DF91
:1007900008C0161617061806991FF1CF8695710521
:1007A000610508940895E894BB2766277727CB0155
:1007B00097F908950E94ED030C94A0030E94920300
:1007C00038F00E94990320F0952311F00C948903CE
:1007D0000C948F0311240C94D4030E94B10370F382
:1007E000959FC1F3950F50E0551F629FF001729FD6
:1007F000BB27F00DB11D639FAA27F00DB11DAA1FE5
:10080000649F6627B00DA11D661F829F2227B00D31
:10081000A11D621F739FB00DA11D621F839FA00DBC
:10082000611D221F749F3327A00D611D231F849F0C
:10083000600D211D822F762F6A2F11249F57504063
:100840009AF0F1F088234AF0EE0FFF1FBB1F661FDE
:10085000771F881F91505040A9F79E3F510580F0A7
:100860000C9489030C94D4035F3FE4F3983ED4F3D3
:10087000869577956795B795F795E7959F5FC1F74B
:10088000FE2B880F911D9695879597F90895F894FA
:10089000FFCFC30080008A0094009E00A800B20031
:1008A000BC00C700D100DB00E500EF00F900F90053
:1008B000EF00E500DB00D100C600BC00B200A800DC
:1008C0009E00930089007F0075006B006000560059
:1008D0004C00420038002D00230019000F000500D5
:1008E00005000F00190023002E00380042004C00C4
:1008F000570061006B00750080008A0094009E0024
:10090000A800B200BC00C700D100DB00E500EF008A
:10091000F900F900EF00E500DB00D100C600BC00E3
:10092000B200A8009E00930089007F0075006B0054
:10093000600056004C00420038002D0023001900D2
:100940000F00050005000F00190023002E003800DD
:1009500042004C00570061006B00750080008A0067
:1009600094009E00A800B200BC00C700D100DB00CC
:10097000E500EF00F900F900EF00E500DB00D10031
:10098000C600BC00B200A8009E00930089007F0052
:1009900075006B00600056004C00420038002D00CE
:1009A000230019000F00050005000F0019002300A7
:1009B0002E00380042004C00570061006B007500AB
:1009C00080008A0094009E00A800B200BC00C7000E
:1009D000D100DB00E500EF00F900F900EF00E500D1
:1009E000DB00D100C600BC00B200A8009E0093004E
:1009F00089007F0075006B00600056004C004200CB
:100A000038002D00230019000F00050005000F001D
:100A1000190023002E00380042004C0057006100EE
:100A20006B00750080008A0094009E00A800B20050
:100A3000BC00C700D100DB00E500EF00F900F900C1
:100A4000EF00E500DB00D100C600BC00B200A8004A
:100A50009E00930089007F0075006B0060005600C7
:100A60004C00420038002D00230019000F00050043
:100A700005000F00190023002E00380042004C0032
:100A8000570061006B00750080008A0094009E0092
:100A9000A800B200BC00C700D100DB00E500EF00F9
:100AA000F900F900EF00E500DB00D100C600BC0052
:100AB000B200A8009E00930089007F0075006B00C3
:100AC000600056004C00420038002D002300190041
:100AD0000F00050005000F00190023002E0038004C
:100AE00042004C00570061006B00750080008200DE
:100AF000850087008A008D008F0092009500970086
:100B00009A009D009F00A200A400A700A900AC00CD
:100B1000AE00B100B300B600B800BA00BD00BF001F
:100B2000C100C400C600C800CA00CC00CE00D0007E
:100B3000D200D400D600D800DA00DC00DE00E000ED
:100B4000E100E300E500E600E800E900EB00EC006E
:100B5000ED00EF00F000F100F200F400F500F60007
:100B6000F700F700F800F900FA00FB00FB00FC00BA
:100B7000FC00FD00FD00FD00FE00FE00FE00FE008A
:100B8000FE00FF00FE00FE00FE00FE00FE00FD0075
:100B9000FD00FD00FC00FC00FB00FB00FA00F9007A
:100BA000F800F700F700F600F500F400F200F1009D
:100BB000F000EF00ED00EC00EB00E900E800E600DB
:100BC000E500E300E100E000DE00DC00DA00D80030
:100BD000D600D400D200D000CE00CC00CA00C8009D
:100BE000C600C400C100BF00BD00BA00B800B60016
:100BF000B300B100AE00AC00A900A700A400A200A1
:100C00009F009D009A009700950092008F008D0034
:100C10008A0087008500820080007D007A007800CD
:100C20007500720070006D006A0068006500620067
:100C300060005D005B0058005600530051004E00FC
:100C40004C00490047004500420040003E003B0088
:100C5000390037003500330031002F002D002B0004
:100C6000290027002500230021001F001E001C0072
:100C70001A001900170016001400130012001000CB
:100C80000F000E000D000B000A000900080008000C
:100C90000700060005000400040003000300020032
:100CA000020002000100010001000100010001003A
:100CB0000100010001000100010002000200020029
:100CC00003000300040004000500060007000800FC
:100CD000080009000A000B000D000E000F001000B4
:100CE0001200130014001600170019001A001C004F
:100CF0001E001F00210023002500270029002B00D3
:100D00002D002F00310033003500370039003B0043
:100D10003E00400042004500470049004C004E00A4
:100D200051005300560058005B005D0060006200F7
:100D3000650068006A006D00700072007500780040
:040D40007A007D00B8
:107E0000112484B714BE81FFF0D085E080938100F7
:107E100082E08093C00088E18093C10086E0809377
:107E2000C20080E18093C4008EE0C9D0259A86E02C
:107E300020E33CEF91E0309385002093840096BBD3
:107E4000B09BFECF1D9AA8958150A9F7CC24DD24C4
:107E500088248394B5E0AB2EA1E19A2EF3E0BF2EE7
:107E6000A2D0813461F49FD0082FAFD0023811F036
:107E7000013811F484E001C083E08DD089C08234E0
:107E800011F484E103C0853419F485E0A6D080C0E4
:107E9000853579F488D0E82EFF2485D0082F10E0AE
:107EA000102F00270E291F29000F111F8ED06801E7
:107EB0006FC0863521F484E090D080E0DECF843638
:107EC00009F040C070D06FD0082F6DD080E0C81688
:107ED00080E7D80618F4F601B7BEE895C0E0D1E017
:107EE00062D089930C17E1F7F0E0CF16F0E7DF06D8
:107EF00018F0F601B7BEE89568D007B600FCFDCFD4
:107F0000A601A0E0B1E02C9130E011968C91119780
:107F100090E0982F8827822B932B1296FA010C0160
:107F200087BEE89511244E5F5F4FF1E0A038BF0790
:107F300051F7F601A7BEE89507B600FCFDCF97BE46
:107F4000E89526C08437B1F42ED02DD0F82E2BD052
:107F50003CD0F601EF2C8F010F5F1F4F84911BD097
:107F6000EA94F801C1F70894C11CD11CFA94CF0C13
:107F7000D11C0EC0853739F428D08EE10CD085E9AC
:107F80000AD08FE07ACF813511F488E018D01DD067
:107F900080E101D065CF982F8091C00085FFFCCF94
:107FA0009093C60008958091C00087FFFCCF809118
:107FB000C00084FD01C0A8958091C6000895E0E648
:107FC000F0E098E1908380830895EDDF803219F02E
:107FD00088E0F5DFFFCF84E1DECF1F93182FE3DFCA
:107FE0001150E9F7F2DF1F91089580E0E8DFEE27F6
:047FF000FF270994CA
:027FFE00040479
:00000001FF
