:020000040000FA
:100000000C945D000C9485000C9485000C94850084
:100010000C9485000C9485000C9401030C948500CD
:100020000C9485000C9485000C9485000C9485003C
:100030000C9485000C9485000C9485000C9485002C
:100040000C945F020C9485000C94CF020C94A902CE
:100050000C9485000C9485000C9485000C9485000C
:100060000C9485000C9485000000000024002700FB
:100070002A0000000000250028002B0004040404CE
:100080000404040402020202020203030303030342
:10009000010204081020408001020408102001021F
:1000A00004081020000000080002010000030407FB
:1000B00000000000000000005B0411241FBECFEF11
:1000C000D8E0DEBFCDBF11E0A0E0B1E0E4E6F9E0AA
:1000D00002C005900D92A234B107D9F721E0A2E445
:1000E000B1E001C01D92AA3EB207E1F710E0CDE5F4
:1000F000D0E004C02197FE010E94AA04CC35D107AC
:10010000C9F70E943A030C94B0040C940000E1EB90
:10011000F0E02491EDE9F0E09491E9E8F0E0E49179
:10012000EE23C9F0222339F0233001F1A8F4213065
:1001300019F1223029F1F0E0EE0FFF1FEE58FF4FCA
:10014000A591B4912FB7F894EC91811126C09095A8
:100150009E239C932FBF08952730A9F02830C9F023
:10016000243049F7209180002F7D03C0209180002A
:100170002F7720938000DFCF24B52F7724BDDBCFEE
:1001800024B52F7DFBCF2091B0002F772093B000B6
:10019000D2CF2091B0002F7DF9CF9E2BDACF3FB781
:1001A000F8948091490190914A01A0914B01B0913E
:1001B0004C0126B5A89B05C02F3F19F00196A11D43
:1001C000B11D3FBFBA2FA92F982F8827BC01CD01A1
:1001D000620F711D811D911D42E0660F771F881F00
:1001E000991F4A95D1F70895AF92BF92CF92DF92AF
:1001F000EF92FF920F931F93CF93DF936C017B01DC
:100200008B01040F151FEB015E01AE18BF08C0176C
:10021000D10759F06991D601ED91FC910190F081DF
:10022000E02DC6010995892B79F7C501DF91CF91A2
:100230001F910F91FF90EF90DF90CF90BF90AF9004
:100240000895FC01538D448D252F30E0842F90E0DC
:10025000821B930B541710F0CF96089501970895C1
:10026000FC01918D828D981761F0A28DAE0FBF2F8A
:10027000B11D5D968C91928D9F5F9F73928F90E0E0
:1002800008958FEF9FEF0895FC01918D828D98174F
:1002900031F0828DE80FF11D858D90E008958FEF8C
:1002A0009FEF0895FC01918D228D892F90E0805C55
:1002B0009F4F821B91098F73992708958DE491E0D8
:1002C0000E94520121E0892B09F420E0822F089539
:1002D00080E090E0892B29F00E945E0181110C944E
:1002E00000000895FC01A48DA80FB92FB11DA35AD9
:1002F000BF4F2C91848D90E001968F739927848F46
:10030000A689B7892C93A089B1898C918370806468
:100310008C93938D848D981306C00288F389E02D09
:1003200080818F7D80830895EF92FF920F931F93BA
:10033000CF93DF93EC0181E0888F9B8D8C8D981398
:100340001AC0E889F989808185FF15C09FB7F894A4
:10035000EE89FF896083E889F989808183708064F0
:1003600080839FBF81E090E0DF91CF911F910F913B
:10037000FF90EF900895F62E0B8D10E00F5F1F4F4A
:100380000F731127E02E8C8D8E110CC00FB607FC59
:10039000FACFE889F989808185FFF5CFCE010E94E7
:1003A0007201F1CFEB8DEC0FFD2FF11DE35AFF4FE2
:1003B000F0829FB7F8940B8FEA89FB898081806275
:1003C000CFCFCF93DF93EC01888D8823B9F0AA8932
:1003D000BB89E889F9898C9185FD03C0808186FD00
:1003E0000DC00FB607FCF7CF8C9185FFF2CF80814F
:1003F00085FFEDCFCE010E947201E9CFDF91CF9151
:100400000895F89484B7877F84BFE0E6F0E08081A8
:10041000886180838DE4808378940895FC01019045
:100420000020E9F73197AF01481B590BBC018DE45F
:1004300091E00C94F4008F929F92AF92BF920F9331
:100440001F93CF93DF93CDB7DEB7A1970FB6F89484
:10045000DEBF0FBECDBF19A2423008F44AE08E01C4
:100460000F5D1F4F842E912CB12CA12CA50194015E
:100470000E948804E62FB901CA01EA30F4F4E05D75
:10048000D801EE938D01232B242B252B79F790E0B7
:1004900080E0109719F0CD010E940E02A1960FB6D0
:1004A000F894DEBF0FBECDBFDF91CF911F910F91AA
:1004B000BF90AF909F908F900895E95CE1CF1F921D
:1004C0000F920FB60F9211242F933F938F939F9308
:1004D000AF93BF938091450190914601A091470150
:1004E000B09148013091440123E0230F2D3758F596
:1004F0000196A11DB11D2093440180934501909365
:100500004601A0934701B093480180914901909121
:100510004A01A0914B01B0914C010196A11DB11D62
:100520008093490190934A01A0934B01B0934C01F1
:10053000BF91AF919F918F913F912F910F900FBEDF
:100540000F901F90189526E8230F0296A11DB11D4C
:10055000D2CF1F920F920FB60F9211242F933F9379
:100560004F935F936F937F938F939F93AF93BF93BB
:10057000EF93FF938DE491E00E947201FF91EF9160
:10058000BF91AF919F918F917F916F915F914F91AB
:100590003F912F910F900FBE0F901F9018951F92B3
:1005A0000F920FB60F9211242F938F939F93EF9377
:1005B000FF93E0915D01F0915E018081E091630124
:1005C000F091640182FD1BC09081809166018F5F74
:1005D0008F7320916701821741F0E0916601F0E08E
:1005E000E35BFE4F958F80936601FF91EF919F91A2
:1005F0008F912F910F900FBE0F901F9018958081B3
:10060000F4CF1F920F920FB60F9211242F933F93A6
:100610004F935F936F937F938F939F93AF93BF930A
:10062000CF93EF93FF938AE391E00E940E028CE157
:1006300091E00E940E02C09100018C2F0E94870061
:1006400081E0C827C093000110924301109242013B
:10065000FF91EF91CF91BF91AF919F918F917F913A
:100660006F915F914F913F912F910F900FBE0F901F
:100670001F901895789484B5826084BD84B581609C
:1006800084BD85B5826085BD85B5816085BD80915D
:100690006E00816080936E001092810080918100D5
:1006A00082608093810080918100816080938100CD
:1006B000809180008160809380008091B10084608F
:1006C0008093B1008091B00081608093B0008091F0
:1006D0007A00846080937A0080917A0082608093AF
:1006E0007A0080917A00816080937A0080917A000C
:1006F000806880937A001092C100E0915D01F091D2
:100700005E0182E08083E0915901F0915A011082EC
:10071000E0915B01F0915C018FEC808310926501A8
:10072000E0916101F091620186E08083E0915F01D8
:10073000F0916001808180618083E0915F01F091A0
:100740006001808188608083E0915F01F0916001A9
:10075000808180688083E0915F01F09160018081F9
:100760008F7D8083EDE9F0E02491E9E8F0E0849169
:10077000882399F090E0880F991FFC01E859FF4FFA
:10078000A591B491FC01EE58FF4F859194918FB7DC
:10079000F894EC91E22BEC938FBF80E00E948700ED
:1007A0000E94010283E191E00E940E0260916000CC
:1007B00070E090E080E040E10E941B028CE191E05B
:1007C0000E940E028FE191E00E940E028CE191E006
:1007D0000E940E0214E6C0E0D0E00E940102809167
:1007E000420190914301019690934301809342010D
:1007F0008FE291E00E940E0220914201309143016C
:10080000129FC001139F900D11246C01092E000C42
:10081000EE08FF0897FF40C06DE28DE491E00E9472
:10082000940166277727CB016C197D098E099F09F2
:100830004AE00E941B028CE191E00E940E0280912E
:10084000420190914301189F6001199FD00C11241F
:100850000D2C000CEE08FF080E94CF004B015C013C
:10086000C114D104E104F104D9F00E94CF00681949
:1008700079098A099B09683E73408105910580F3D7
:1008800021E0C21AD108E108F10888EE880E83E061
:10089000981EA11CB11CE4CF4AE0C701B601C9CF24
:1008A000209709F49ACF0E945E01882309F495CF1E
:1008B0000E94000092CFEDE4F1E01382128288EEF4
:1008C00093E0A0E0B0E084839583A683B78385E0BE
:1008D00091E09183808385EC90E09587848784EC18
:1008E00090E09787868780EC90E0918B808B81ECFD
:1008F00090E0938B828B82EC90E0958B848B86ECDE
:1009000090E0978B868B118E128E138E148E089525
:10091000A1E21A2EAA1BBB1BFD010DC0AA1FBB1F03
:10092000EE1FFF1FA217B307E407F50720F0A21B75
:10093000B30BE40BF50B661F771F881F991F1A94E2
:1009400069F760957095809590959B01AC01BD010C
:10095000CF010895EE0FFF1F0590F491E02D09944B
:10096000F894FFCF01000000009401F4002101E1A0
:10097000015201300144015744544353523A20007C
:100980000D0A0053657475702066696E6973686539
:10099000642E0064656C6179206F663A20005744CC
:0609A00054206F6E000000
:107E0000112484B714BE81FFF0D085E080938100F7
:107E100082E08093C00088E18093C10086E0809377
:107E2000C20080E18093C4008EE0C9D0259A86E02C
:107E300020E33CEF91E0309385002093840096BBD3
:107E4000B09BFECF1D9AA8958150A9F7CC24DD24C4
:107E500088248394B5E0AB2EA1E19A2EF3E0BF2EE7
:107E6000A2D0813461F49FD0082FAFD0023811F036
:107E7000013811F484E001C083E08DD089C08234E0
:107E800011F484E103C0853419F485E0A6D080C0E4
:107E9000853579F488D0E82EFF2485D0082F10E0AE
:107EA000102F00270E291F29000F111F8ED06801E7
:107EB0006FC0863521F484E090D080E0DECF843638
:107EC00009F040C070D06FD0082F6DD080E0C81688
:107ED00080E7D80618F4F601B7BEE895C0E0D1E017
:107EE00062D089930C17E1F7F0E0CF16F0E7DF06D8
:107EF00018F0F601B7BEE89568D007B600FCFDCFD4
:107F0000A601A0E0B1E02C9130E011968C91119780
:107F100090E0982F8827822B932B1296FA010C0160
:107F200087BEE89511244E5F5F4FF1E0A038BF0790
:107F300051F7F601A7BEE89507B600FCFDCF97BE46
:107F4000E89526C08437B1F42ED02DD0F82E2BD052
:107F50003CD0F601EF2C8F010F5F1F4F84911BD097
:107F6000EA94F801C1F70894C11CD11CFA94CF0C13
:107F7000D11C0EC0853739F428D08EE10CD085E9AC
:107F80000AD08FE07ACF813511F488E018D01DD067
:107F900080E101D065CF982F8091C00085FFFCCF94
:107FA0009093C60008958091C00087FFFCCF809118
:107FB000C00084FD01C0A8958091C6000895E0E648
:107FC000F0E098E1908380830895EDDF803219F02E
:107FD00088E0F5DFFFCF84E1DECF1F93182FE3DFCA
:107FE0001150E9F7F2DF1F91089580E0E8DFEE27F6
:047FF000FF270994CA
:027FFE00040479
:00000001FF
